{
  "_format": "hh-sol-artifact-1",
  "contractName": "DAO",
  "sourceName": "contracts/Dao.sol",
  "abi": [
    {
      "inputs": [],
      "stateMutability": "nonpayable",
      "type": "constructor"
    },
    {
      "anonymous": false,
      "inputs": [
        {
          "indexed": true,
          "internalType": "uint256",
          "name": "_parameters_index",
          "type": "uint256"
        },
        {
          "components": [
            {
              "internalType": "uint256",
              "name": "parameters_index",
              "type": "uint256"
            },
            {
              "internalType": "uint256",
              "name": "before_value",
              "type": "uint256"
            },
            {
              "internalType": "uint256",
              "name": "after_value",
              "type": "uint256"
            },
            {
              "internalType": "uint256",
              "name": "beginning",
              "type": "uint256"
            },
            {
              "internalType": "uint256",
              "name": "deadline",
              "type": "uint256"
            },
            {
              "internalType": "string",
              "name": "title",
              "type": "string"
            },
            {
              "internalType": "string",
              "name": "description",
              "type": "string"
            },
            {
              "internalType": "address[]",
              "name": "is_yes",
              "type": "address[]"
            },
            {
              "internalType": "address[]",
              "name": "is_no",
              "type": "address[]"
            },
            {
              "internalType": "bool",
              "name": "is_close",
              "type": "bool"
            }
          ],
          "indexed": false,
          "internalType": "struct DAO.Election",
          "name": "election",
          "type": "tuple"
        }
      ],
      "name": "Start_Election",
      "type": "event"
    },
    {
      "inputs": [],
      "name": "doneElection",
      "outputs": [
        {
          "internalType": "bool",
          "name": "",
          "type": "bool"
        }
      ],
      "stateMutability": "nonpayable",
      "type": "function"
    },
    {
      "inputs": [],
      "name": "getActive_election",
      "outputs": [
        {
          "components": [
            {
              "internalType": "uint256",
              "name": "parameters_index",
              "type": "uint256"
            },
            {
              "internalType": "uint256",
              "name": "before_value",
              "type": "uint256"
            },
            {
              "internalType": "uint256",
              "name": "after_value",
              "type": "uint256"
            },
            {
              "internalType": "uint256",
              "name": "beginning",
              "type": "uint256"
            },
            {
              "internalType": "uint256",
              "name": "deadline",
              "type": "uint256"
            },
            {
              "internalType": "string",
              "name": "title",
              "type": "string"
            },
            {
              "internalType": "string",
              "name": "description",
              "type": "string"
            },
            {
              "internalType": "address[]",
              "name": "is_yes",
              "type": "address[]"
            },
            {
              "internalType": "address[]",
              "name": "is_no",
              "type": "address[]"
            },
            {
              "internalType": "bool",
              "name": "is_close",
              "type": "bool"
            }
          ],
          "internalType": "struct DAO.Election",
          "name": "election",
          "type": "tuple"
        }
      ],
      "stateMutability": "view",
      "type": "function"
    },
    {
      "inputs": [
        {
          "internalType": "uint256",
          "name": "index",
          "type": "uint256"
        }
      ],
      "name": "getElection",
      "outputs": [
        {
          "components": [
            {
              "internalType": "uint256",
              "name": "parameters_index",
              "type": "uint256"
            },
            {
              "internalType": "uint256",
              "name": "before_value",
              "type": "uint256"
            },
            {
              "internalType": "uint256",
              "name": "after_value",
              "type": "uint256"
            },
            {
              "internalType": "uint256",
              "name": "beginning",
              "type": "uint256"
            },
            {
              "internalType": "uint256",
              "name": "deadline",
              "type": "uint256"
            },
            {
              "internalType": "string",
              "name": "title",
              "type": "string"
            },
            {
              "internalType": "string",
              "name": "description",
              "type": "string"
            },
            {
              "internalType": "address[]",
              "name": "is_yes",
              "type": "address[]"
            },
            {
              "internalType": "address[]",
              "name": "is_no",
              "type": "address[]"
            },
            {
              "internalType": "bool",
              "name": "is_close",
              "type": "bool"
            }
          ],
          "internalType": "struct DAO.Election",
          "name": "",
          "type": "tuple"
        }
      ],
      "stateMutability": "view",
      "type": "function"
    },
    {
      "inputs": [],
      "name": "getElection_setting",
      "outputs": [
        {
          "internalType": "uint256",
          "name": "",
          "type": "uint256"
        },
        {
          "internalType": "uint256",
          "name": "",
          "type": "uint256"
        },
        {
          "internalType": "uint256",
          "name": "",
          "type": "uint256"
        },
        {
          "internalType": "uint256",
          "name": "",
          "type": "uint256"
        }
      ],
      "stateMutability": "view",
      "type": "function"
    },
    {
      "inputs": [
        {
          "internalType": "uint256",
          "name": "index",
          "type": "uint256"
        }
      ],
      "name": "getParameter",
      "outputs": [
        {
          "components": [
            {
              "internalType": "uint256",
              "name": "index",
              "type": "uint256"
            },
            {
              "internalType": "uint256",
              "name": "value",
              "type": "uint256"
            },
            {
              "internalType": "uint256",
              "name": "decimals",
              "type": "uint256"
            },
            {
              "internalType": "string",
              "name": "unit_jp",
              "type": "string"
            },
            {
              "internalType": "string",
              "name": "unit_en",
              "type": "string"
            },
            {
              "internalType": "string",
              "name": "name_jp",
              "type": "string"
            },
            {
              "internalType": "string",
              "name": "name_en",
              "type": "string"
            },
            {
              "internalType": "string",
              "name": "description_jp",
              "type": "string"
            },
            {
              "internalType": "string",
              "name": "description_en",
              "type": "string"
            }
          ],
          "internalType": "struct DAO.Parameter",
          "name": "",
          "type": "tuple"
        }
      ],
      "stateMutability": "view",
      "type": "function"
    },
    {
      "inputs": [
        {
          "internalType": "uint256",
          "name": "index",
          "type": "uint256"
        }
      ],
      "name": "getParameter_val",
      "outputs": [
        {
          "internalType": "uint256",
          "name": "",
          "type": "uint256"
        }
      ],
      "stateMutability": "view",
      "type": "function"
    },
    {
      "inputs": [],
      "name": "getParameters",
      "outputs": [
        {
          "components": [
            {
              "internalType": "uint256",
              "name": "index",
              "type": "uint256"
            },
            {
              "internalType": "uint256",
              "name": "value",
              "type": "uint256"
            },
            {
              "internalType": "uint256",
              "name": "decimals",
              "type": "uint256"
            },
            {
              "internalType": "string",
              "name": "unit_jp",
              "type": "string"
            },
            {
              "internalType": "string",
              "name": "unit_en",
              "type": "string"
            },
            {
              "internalType": "string",
              "name": "name_jp",
              "type": "string"
            },
            {
              "internalType": "string",
              "name": "name_en",
              "type": "string"
            },
            {
              "internalType": "string",
              "name": "description_jp",
              "type": "string"
            },
            {
              "internalType": "string",
              "name": "description_en",
              "type": "string"
            }
          ],
          "internalType": "struct DAO.Parameter[]",
          "name": "",
          "type": "tuple[]"
        }
      ],
      "stateMutability": "view",
      "type": "function"
    },
    {
      "inputs": [],
      "name": "getParameters_length",
      "outputs": [
        {
          "internalType": "uint256",
          "name": "",
          "type": "uint256"
        }
      ],
      "stateMutability": "view",
      "type": "function"
    },
    {
      "inputs": [],
      "name": "getRequestFactcheck_setting",
      "outputs": [
        {
          "internalType": "uint256",
          "name": "",
          "type": "uint256"
        },
        {
          "internalType": "uint256",
          "name": "",
          "type": "uint256"
        },
        {
          "internalType": "uint256",
          "name": "",
          "type": "uint256"
        }
      ],
      "stateMutability": "view",
      "type": "function"
    },
    {
      "inputs": [],
      "name": "get_vote_len",
      "outputs": [
        {
          "internalType": "uint256",
          "name": "",
          "type": "uint256"
        },
        {
          "internalType": "uint256",
          "name": "",
          "type": "uint256"
        }
      ],
      "stateMutability": "view",
      "type": "function"
    },
    {
      "inputs": [],
      "name": "isElection",
      "outputs": [
        {
          "internalType": "bool",
          "name": "",
          "type": "bool"
        },
        {
          "internalType": "uint256",
          "name": "",
          "type": "uint256"
        }
      ],
      "stateMutability": "view",
      "type": "function"
    },
    {
      "inputs": [
        {
          "internalType": "uint256",
          "name": "_parameters_index",
          "type": "uint256"
        },
        {
          "internalType": "uint256",
          "name": "_proposal_value",
          "type": "uint256"
        },
        {
          "internalType": "string",
          "name": "_title",
          "type": "string"
        },
        {
          "internalType": "string",
          "name": "_description",
          "type": "string"
        },
        {
          "internalType": "uint256",
          "name": "_deadline",
          "type": "uint256"
        }
      ],
      "name": "startElection",
      "outputs": [
        {
          "internalType": "bool",
          "name": "",
          "type": "bool"
        }
      ],
      "stateMutability": "nonpayable",
      "type": "function"
    },
    {
      "inputs": [],
      "name": "token",
      "outputs": [
        {
          "internalType": "contract IERC20",
          "name": "",
          "type": "address"
        }
      ],
      "stateMutability": "view",
      "type": "function"
    },
    {
      "inputs": [
        {
          "internalType": "bool",
          "name": "vote_result",
          "type": "bool"
        }
      ],
      "name": "vote",
      "outputs": [
        {
          "internalType": "bool",
          "name": "",
          "type": "bool"
        }
      ],
      "stateMutability": "nonpayable",
      "type": "function"
    }
  ],
  "bytecode": "0x6080604052738ff14619a447e5d17ae17ba274de0d4ef5ff3697600160006101000a81548173ffffffffffffffffffffffffffffffffffffffff021916908373ffffffffffffffffffffffffffffffffffffffff1602179055503480156200006657600080fd5b50336000806101000a81548173ffffffffffffffffffffffffffffffffffffffff021916908373ffffffffffffffffffffffffffffffffffffffff160217905550600160009054906101000a900473ffffffffffffffffffffffffffffffffffffffff16600260006101000a81548173ffffffffffffffffffffffffffffffffffffffff021916908373ffffffffffffffffffffffffffffffffffffffff1602179055506200011a6200013260201b60201c565b506200012b620019f760201b60201c565b5062002002565b60006005604051806101200160405280600081526020016000815260200160008152602001604051806020016040528060008152508152602001604051806020016040528060008152508152602001604051806020016040528060008152508152602001604051806020016040528060008152508152602001604051806020016040528060008152508152602001604051806020016040528060008152508152509080600181540180825580915050600190039060005260206000209060090201600090919091909150600082015181600001556020820151816001015560408201518160020155606082015181600301908162000231919062001f1b565b50608082015181600401908162000249919062001f1b565b5060a082015181600501908162000261919062001f1b565b5060c082015181600601908162000279919062001f1b565b5060e082015181600701908162000291919062001f1b565b50610100820151816008019081620002aa919062001f1b565b505050600560405180610120016040528060018152602001678ac7230489e800008152602001601281526020016040518060400160405280600481526020017f57616b650000000000000000000000000000000000000000000000000000000081525081526020016040518060400160405280600481526020017f57616b650000000000000000000000000000000000000000000000000000000081525081526020016040518060400160405280601581526020017fe981b8e68c99e381aee9968be582ace8b2bbe794a8000000000000000000000081525081526020016040518060400160405280600e81526020017f456c656374696f6e20636f737473000000000000000000000000000000000000815250815260200160405180606001604052806030815260200162005baa60309139815260200160405180606001604052806021815260200162005a5260219139815250908060018154018082558091505060019003906000526020600020906009020160009091909190915060008201518160000155602082015181600101556040820151816002015560608201518160030190816200045d919062001f1b565b50608082015181600401908162000475919062001f1b565b5060a08201518160050190816200048d919062001f1b565b5060c0820151816006019081620004a5919062001f1b565b5060e0820151816007019081620004bd919062001f1b565b50610100820151816008019081620004d6919062001f1b565b505050600560405180610120016040528060028152602001670de0b6b3a76400008152602001601281526020016040518060400160405280600481526020017f57616b650000000000000000000000000000000000000000000000000000000081525081526020016040518060400160405280600481526020017f57616b650000000000000000000000000000000000000000000000000000000081525081526020016040518060400160405280601281526020017fe981b8e68c99e6a8a9e381aee4bea1e6a0bc000000000000000000000000000081525081526020016040518060400160405280600e81526020017f7375666672616765207072696365000000000000000000000000000000000000815250815260200160405180606001604052806030815260200162005c6760309139815260200160405180606001604052806024815260200162005c97602491398152509080600181540180825580915050600190039060005260206000209060090201600090919091909150600082015181600001556020820151816001015560408201518160020155606082015181600301908162000689919062001f1b565b506080820151816004019081620006a1919062001f1b565b5060a0820151816005019081620006b9919062001f1b565b5060c0820151816006019081620006d1919062001f1b565b5060e0820151816007019081620006e9919062001f1b565b5061010082015181600801908162000702919062001f1b565b50505060056040518061012001604052806003815260200160038152602001600081526020016040518060400160405280600381526020017fe4baba000000000000000000000000000000000000000000000000000000000081525081526020016040518060400160405280600681526020017f706572736f6e000000000000000000000000000000000000000000000000000081525081526020016040518060400160405280600981526020017fe5ae9ae8b6b3e695b0000000000000000000000000000000000000000000000081525081526020016040518060400160405280600681526020017f71756f72756d000000000000000000000000000000000000000000000000000081525081526020016040518060600160405280602a815260200162005b1c602a9139815260200160405180606001604052806031815260200162005b466031913981525090806001815401808255809150506001900390600052602060002090600902016000909190919091506000820151816000015560208201518160010155604082015181600201556060820151816003019081620008ae919062001f1b565b506080820151816004019081620008c6919062001f1b565b5060a0820151816005019081620008de919062001f1b565b5060c0820151816006019081620008f6919062001f1b565b5060e08201518160070190816200090e919062001f1b565b5061010082015181600801908162000927919062001f1b565b50505060056040518061012001604052806004815260200160018152602001600181526020016040518060400160405280600681526020017fe69982e99693000000000000000000000000000000000000000000000000000081525081526020016040518060400160405280600581526020017f686f75727300000000000000000000000000000000000000000000000000000081525081526020016040518060400160405280602081526020017fe981b8e68c99e381aee9968be582ace69982e9969328e69c80e4bd8ee580a42981525081526020016040518060400160405280601d81526020017f456c656374696f6e2074696d6520286d696e696d756d2076616c756529000000815250815260200160405180606001604052806021815260200162005a996021913981526020016040518060400160405280601781526020017f456c656374696f6e20706572696f64206d696e696d756d0000000000000000008152508152509080600181540180825580915050600190039060005260206000209060090201600090919091909150600082015181600001556020820151816001015560408201518160020155606082015181600301908162000aef919062001f1b565b50608082015181600401908162000b07919062001f1b565b5060a082015181600501908162000b1f919062001f1b565b5060c082015181600601908162000b37919062001f1b565b5060e082015181600701908162000b4f919062001f1b565b5061010082015181600801908162000b68919062001f1b565b50505060056040518061012001604052806005815260200160648152602001600181526020016040518060400160405280600681526020017fe69982e99693000000000000000000000000000000000000000000000000000081525081526020016040518060400160405280600581526020017f686f75727300000000000000000000000000000000000000000000000000000081525081526020016040518060400160405280602081526020017fe981b8e68c99e381aee9968be582ace69982e9969328e69c80e5a4a7e580a42981525081526020016040518060400160405280601d81526020017f456c656374696f6e2074696d6520286d6178696d756d2076616c756529000000815250815260200160405180606001604052806021815260200162005a316021913981526020016040518060400160405280601781526020017f456c656374696f6e20706572696f64206d6178696d756d0000000000000000008152508152509080600181540180825580915050600190039060005260206000209060090201600090919091909150600082015181600001556020820151816001015560408201518160020155606082015181600301908162000d30919062001f1b565b50608082015181600401908162000d48919062001f1b565b5060a082015181600501908162000d60919062001f1b565b5060c082015181600601908162000d78919062001f1b565b5060e082015181600701908162000d90919062001f1b565b5061010082015181600801908162000da9919062001f1b565b505050600560405180610120016040528060068152602001678ac7230489e800008152602001601281526020016040518060400160405280600481526020017f57616b650000000000000000000000000000000000000000000000000000000081525081526020016040518060400160405280600481526020017f57616b6500000000000000000000000000000000000000000000000000000000815250815260200160405180606001604052806032815260200162005dd96032913981526020016040518060400160405280602081526020017f4661637420636865636b20726571756573742066656520286d696e696d756d29815250815260200160405180606001604052806033815260200162005c346033913981526020016040518060400160405280601e81526020017f4d696e696d756d204661637420436865636b20526571756573742046656500008152508152509080600181540180825580915050600190039060005260206000209060090201600090919091909150600082015181600001556020820151816001015560408201518160020155606082015181600301908162000f5c919062001f1b565b50608082015181600401908162000f74919062001f1b565b5060a082015181600501908162000f8c919062001f1b565b5060c082015181600601908162000fa4919062001f1b565b5060e082015181600701908162000fbc919062001f1b565b5061010082015181600801908162000fd5919062001f1b565b50505060056040518061012001604052806007815260200160018152602001600181526020016040518060400160405280600681526020017fe69982e99693000000000000000000000000000000000000000000000000000081525081526020016040518060400160405280600581526020017f686f757273000000000000000000000000000000000000000000000000000000815250815260200160405180606001604052806032815260200162005aba60329139815260200160405180606001604052806026815260200162005cee60269139815260200160405180606001604052806033815260200162005cbb60339139815260200160405180606001604052806025815260200162005db4602591398152509080600181540180825580915050600190039060005260206000209060090201600090919091909150600082015181600001556020820151816001015560408201518160020155606082015181600301908162001149919062001f1b565b50608082015181600401908162001161919062001f1b565b5060a082015181600501908162001179919062001f1b565b5060c082015181600601908162001191919062001f1b565b5060e0820151816007019081620011a9919062001f1b565b50610100820151816008019081620011c2919062001f1b565b50505060056040518061012001604052806008815260200160f08152602001600181526020016040518060400160405280600681526020017fe69982e99693000000000000000000000000000000000000000000000000000081525081526020016040518060400160405280600581526020017f686f757273000000000000000000000000000000000000000000000000000000815250815260200160405180606001604052806032815260200162005d5d60329139815260200160405180606001604052806026815260200162005a7360269139815260200160405180606001604052806033815260200162005b7760339139815260200160405180606001604052806025815260200162005d8f602591398152509080600181540180825580915050600190039060005260206000209060090201600090919091909150600082015181600001556020820151816001015560408201518160020155606082015181600301908162001336919062001f1b565b5060808201518160040190816200134e919062001f1b565b5060a082015181600501908162001366919062001f1b565b5060c08201518160060190816200137e919062001f1b565b5060e082015181600701908162001396919062001f1b565b50610100820151816008019081620013af919062001f1b565b505050600560405180610120016040528060098152602001670de0b6b3a76400008152602001601281526020016040518060400160405280600481526020017f57616b650000000000000000000000000000000000000000000000000000000081525081526020016040518060400160405280600481526020017f57616b6500000000000000000000000000000000000000000000000000000000815250815260200160405180606001604052806027815260200162005c0d6027913981526020016040518060400160405280601d81526020017f506f7374696e672066656520666f7220666163742d636865636b696e67000000815250815260200160405180606001604052806027815260200162005c0d6027913981526020016040518060400160405280601d81526020017f506f7374696e672066656520666f7220666163742d636865636b696e670000008152508152509080600181540180825580915050600190039060005260206000209060090201600090919091909150600082015181600001556020820151816001015560408201518160020155606082015181600301908162001562919062001f1b565b5060808201518160040190816200157a919062001f1b565b5060a082015181600501908162001592919062001f1b565b5060c0820151816006019081620015aa919062001f1b565b5060e0820151816007019081620015c2919062001f1b565b50610100820151816008019081620015db919062001f1b565b5050506005604051806101200160405280600a815260200160018152602001600181526020016040518060400160405280600681526020017fe69982e99693000000000000000000000000000000000000000000000000000081525081526020016040518060400160405280600581526020017f686f757273000000000000000000000000000000000000000000000000000000815250815260200160405180606001604052806030815260200162005aec6030913981526020016040518060400160405280601b81526020017f466163742d636865636b206576616c756174696f6e20686f7572730000000000815250815260200160405180606001604052806030815260200162005aec6030913981526020016040518060400160405280601b81526020017f466163742d636865636b206576616c756174696f6e20686f75727300000000008152508152509080600181540180825580915050600190039060005260206000209060090201600090919091909150600082015181600001556020820151816001015560408201518160020155606082015181600301908162001787919062001f1b565b5060808201518160040190816200179f919062001f1b565b5060a0820151816005019081620017b7919062001f1b565b5060c0820151816006019081620017cf919062001f1b565b5060e0820151816007019081620017e7919062001f1b565b5061010082015181600801908162001800919062001f1b565b5050506005604051806101200160405280600c815260200160648152602001600081526020016040518060400160405280600381526020017fe7a5a8000000000000000000000000000000000000000000000000000000000081525081526020016040518060400160405280600481526020017f766f746500000000000000000000000000000000000000000000000000000000815250815260200160405180608001604052806049815260200162005d1460499139815260200160405180606001604052806033815260200162005bda60339139815260200160405180608001604052806049815260200162005d1460499139815260200160405180606001604052806033815260200162005bda603391398152509080600181540180825580915050600190039060005260206000209060090201600090919091909150600082015181600001556020820151816001015560408201518160020155606082015181600301908162001974919062001f1b565b5060808201518160040190816200198c919062001f1b565b5060a0820151816005019081620019a4919062001f1b565b5060c0820151816006019081620019bc919062001f1b565b5060e0820151816007019081620019d4919062001f1b565b50610100820151816008019081620019ed919062001f1b565b5050506001905090565b60006003604051806101400160405280600081526020016000815260200160008152602001428152602001428152602001604051806020016040528060008152508152602001604051806020016040528060008152508152602001600067ffffffffffffffff81111562001a705762001a6f62001cac565b5b60405190808252806020026020018201604052801562001a9f5781602001602082028036833780820191505090505b508152602001600067ffffffffffffffff81111562001ac35762001ac262001cac565b5b60405190808252806020026020018201604052801562001af25781602001602082028036833780820191505090505b5081526020016001151581525090806001815401808255809150506001900390600052602060002090600a0201600090919091909150600082015181600001556020820151816001015560408201518160020155606082015181600301556080820151816004015560a082015181600501908162001b71919062001f1b565b5060c082015181600601908162001b89919062001f1b565b5060e082015181600701908051906020019062001ba892919062001bf3565b5061010082015181600801908051906020019062001bc892919062001bf3565b506101208201518160090160006101000a81548160ff02191690831515021790555050506001905090565b82805482825590600052602060002090810192821562001c6f579160200282015b8281111562001c6e5782518260006101000a81548173ffffffffffffffffffffffffffffffffffffffff021916908373ffffffffffffffffffffffffffffffffffffffff1602179055509160200191906001019062001c14565b5b50905062001c7e919062001c82565b5090565b5b8082111562001c9d57600081600090555060010162001c83565b5090565b600081519050919050565b7f4e487b7100000000000000000000000000000000000000000000000000000000600052604160045260246000fd5b7f4e487b7100000000000000000000000000000000000000000000000000000000600052602260045260246000fd5b6000600282049050600182168062001d2357607f821691505b60208210810362001d395762001d3862001cdb565b5b50919050565b60008190508160005260206000209050919050565b60006020601f8301049050919050565b600082821b905092915050565b60006008830262001da37fffffffffffffffffffffffffffffffffffffffffffffffffffffffffffffffff8262001d64565b62001daf868362001d64565b95508019841693508086168417925050509392505050565b6000819050919050565b6000819050919050565b600062001dfc62001df662001df08462001dc7565b62001dd1565b62001dc7565b9050919050565b6000819050919050565b62001e188362001ddb565b62001e3062001e278262001e03565b84845462001d71565b825550505050565b600090565b62001e4762001e38565b62001e5481848462001e0d565b505050565b5b8181101562001e7c5762001e7060008262001e3d565b60018101905062001e5a565b5050565b601f82111562001ecb5762001e958162001d3f565b62001ea08462001d54565b8101602085101562001eb0578190505b62001ec862001ebf8562001d54565b83018262001e59565b50505b505050565b600082821c905092915050565b600062001ef06000198460080262001ed0565b1980831691505092915050565b600062001f0b838362001edd565b9150826002028217905092915050565b62001f268262001ca1565b67ffffffffffffffff81111562001f425762001f4162001cac565b5b62001f4e825462001d0a565b62001f5b82828562001e80565b600060209050601f83116001811462001f93576000841562001f7e578287015190505b62001f8a858262001efd565b86555062001ffa565b601f19841662001fa38662001d3f565b60005b8281101562001fcd5784890151825560018201915060208501945060208101905062001fa6565b8683101562001fed578489015162001fe9601f89168262001edd565b8355505b6001600288020188555050505b505050505050565b613a1f80620020126000396000f3fe608060405234801561001057600080fd5b50600436106100ea5760003560e01c80639e45d7861161008c578063cd0b97b811610066578063cd0b97b814610266578063e1fd7bb214610285578063eb352a29146102a6578063fc0c546a146102d6576100ea565b80639e45d786146101fa578063a1970b6514610218578063a5ea11da14610248576100ea565b806341eb76f7116100c857806341eb76f71461015e5780634b9f5c981461017c578063577a11f5146101ac5780639d710777146101ca576100ea565b806329fbad5b146100ef578063337a08351461011f5780633e0f875b1461013f575b600080fd5b610109600480360381019061010491906125e0565b6102f4565b60405161011691906126ae565b60405180910390f35b610127610990565b604051610136939291906126d8565b60405180910390f35b610147610a15565b60405161015592919061270f565b60405180910390f35b610166610a94565b6040516101739190612738565b60405180910390f35b6101966004803603810190610191919061277f565b610aa1565b6040516101a391906126ae565b60405180910390f35b6101b4610f5a565b6040516101c19190612a28565b60405180910390f35b6101e460048036038101906101df9190612a4a565b611546565b6040516101f19190612a28565b60405180910390f35b610202611810565b60405161020f91906126ae565b60405180910390f35b610232600480360381019061022d9190612a4a565b6119f1565b60405161023f9190612b5f565b60405180910390f35b610250611db8565b60405161025d9190612d2b565b60405180910390f35b61026e6121a2565b60405161027c929190612d4d565b60405180910390f35b61028d612204565b60405161029d9493929190612d76565b60405180910390f35b6102c060048036038101906102bb9190612a4a565b6122b3565b6040516102cd9190612738565b60405180910390f35b6102de6122e2565b6040516102eb9190612e1a565b60405180910390f35b6000600560018154811061030b5761030a612e35565b5b906000526020600020906009020160010154600260009054906101000a900473ffffffffffffffffffffffffffffffffffffffff1673ffffffffffffffffffffffffffffffffffffffff1663dd62ed3e33306040518363ffffffff1660e01b815260040161037a929190612e73565b602060405180830381865afa158015610397573d6000803e3d6000fd5b505050506040513d601f19601f820116820180604052508101906103bb9190612eb1565b10156103fc576040517f08c379a00000000000000000000000000000000000000000000000000000000081526004016103f390612f61565b60405180910390fd5b42600360016003805490506104119190612fb0565b8154811061042257610421612e35565b5b90600052602060002090600a02016004015410610474576040517f08c379a000000000000000000000000000000000000000000000000000000000815260040161046b90613056565b60405180910390fd5b428210156104b7576040517f08c379a00000000000000000000000000000000000000000000000000000000081526004016104ae906130e8565b60405180910390fd5b60056004815481106104cc576104cb612e35565b5b906000526020600020906009020160020154600a6104ea919061323b565b603c80600560048154811061050257610501612e35565b5b90600052602060002090600902016001015461051e9190613286565b6105289190613286565b61053291906132f7565b4261053d9190613328565b82101561057f576040517f08c379a0000000000000000000000000000000000000000000000000000000008152600401610576906133a8565b60405180910390fd5b6005808154811061059357610592612e35565b5b906000526020600020906009020160020154600a6105b1919061323b565b603c80600580815481106105c8576105c7612e35565b5b9060005260206000209060090201600101546105e49190613286565b6105ee9190613286565b6105f891906132f7565b426106039190613328565b821115610645576040517f08c379a000000000000000000000000000000000000000000000000000000000815260040161063c90613414565b60405180910390fd5b60008603610688576040517f08c379a000000000000000000000000000000000000000000000000000000000815260040161067f906134a6565b60405180910390fd5b6003604051806101400160405280888152602001600589815481106106b0576106af612e35565b5b9060005260206000209060090201600101548152602001878152602001428152602001848152602001868152602001858152602001600067ffffffffffffffff811115610700576106ff6124b5565b5b60405190808252806020026020018201604052801561072e5781602001602082028036833780820191505090505b508152602001600067ffffffffffffffff81111561074f5761074e6124b5565b5b60405190808252806020026020018201604052801561077d5781602001602082028036833780820191505090505b5081526020016000151581525090806001815401808255809150506001900390600052602060002090600a0201600090919091909150600082015181600001556020820151816001015560408201518160020155606082015181600301556080820151816004015560a08201518160050190816107fa91906136c8565b5060c082015181600601908161081091906136c8565b5060e082015181600701908051906020019061082d929190612308565b5061010082015181600801908051906020019061084b929190612308565b506101208201518160090160006101000a81548160ff02191690831515021790555050506000600260009054906101000a900473ffffffffffffffffffffffffffffffffffffffff1673ffffffffffffffffffffffffffffffffffffffff166323b872dd333060056001815481106108c6576108c5612e35565b5b9060005260206000209060090201600101546040518463ffffffff1660e01b81526004016108f69392919061379a565b6020604051808303816000875af1158015610915573d6000803e3d6000fd5b505050506040513d601f19601f8201168201806040525081019061093991906137e6565b90506001151581151514610982576040517f08c379a00000000000000000000000000000000000000000000000000000000081526004016109799061385f565b60405180910390fd5b600191505095945050505050565b600080600060056006815481106109aa576109a9612e35565b5b90600052602060002090600902016001015460056007815481106109d1576109d0612e35565b5b90600052602060002090600902016001015460056008815481106109f8576109f7612e35565b5b906000526020600020906009020160010154925092509250909192565b60008060036001600380549050610a2c9190612fb0565b81548110610a3d57610a3c612e35565b5b90600052602060002090600a02016007018054905060036001600380549050610a669190612fb0565b81548110610a7757610a76612e35565b5b90600052602060002090600a020160080180549050915091509091565b6000600580549050905090565b60006005600281548110610ab857610ab7612e35565b5b906000526020600020906009020160010154600260009054906101000a900473ffffffffffffffffffffffffffffffffffffffff1673ffffffffffffffffffffffffffffffffffffffff1663dd62ed3e33306040518363ffffffff1660e01b8152600401610b27929190612e73565b602060405180830381865afa158015610b44573d6000803e3d6000fd5b505050506040513d601f19601f82011682018060405250810190610b689190612eb1565b1015610ba9576040517f08c379a0000000000000000000000000000000000000000000000000000000008152600401610ba090612f61565b60405180910390fd5b6000151560036001600380549050610bc19190612fb0565b81548110610bd257610bd1612e35565b5b90600052602060002090600a020160090160009054906101000a900460ff16151514610c33576040517f08c379a0000000000000000000000000000000000000000000000000000000008152600401610c2a906138cb565b60405180910390fd5b4260036001600380549050610c489190612fb0565b81548110610c5957610c58612e35565b5b90600052602060002090600a02016004015411610cab576040517f08c379a0000000000000000000000000000000000000000000000000000000008152600401610ca290613937565b60405180910390fd5b8115610d4d5760036001600380549050610cc59190612fb0565b81548110610cd657610cd5612e35565b5b90600052602060002090600a0201600701339080600181540180825580915050600190039060005260206000200160009091909190916101000a81548173ffffffffffffffffffffffffffffffffffffffff021916908373ffffffffffffffffffffffffffffffffffffffff160217905550610de5565b60036001600380549050610d619190612fb0565b81548110610d7257610d71612e35565b5b90600052602060002090600a0201600801339080600181540180825580915050600190039060005260206000200160009091909190916101000a81548173ffffffffffffffffffffffffffffffffffffffff021916908373ffffffffffffffffffffffffffffffffffffffff1602179055505b6001600460003373ffffffffffffffffffffffffffffffffffffffff1673ffffffffffffffffffffffffffffffffffffffff16815260200190815260200160002060006101000a81548160ff0219169083151502179055506000600260009054906101000a900473ffffffffffffffffffffffffffffffffffffffff1673ffffffffffffffffffffffffffffffffffffffff166323b872dd33306005600281548110610e9457610e93612e35565b5b9060005260206000209060090201600101546040518463ffffffff1660e01b8152600401610ec49392919061379a565b6020604051808303816000875af1158015610ee3573d6000803e3d6000fd5b505050506040513d601f19601f82011682018060405250810190610f0791906137e6565b90506001151581151514610f50576040517f08c379a0000000000000000000000000000000000000000000000000000000008152600401610f479061385f565b60405180910390fd5b6001915050919050565b610f62612392565b6000151560036001600380549050610f7a9190612fb0565b81548110610f8b57610f8a612e35565b5b90600052602060002090600a020160090160009054906101000a900460ff161515036112845760036001600380549050610fc59190612fb0565b81548110610fd657610fd5612e35565b5b90600052602060002090600a0201604051806101400160405290816000820154815260200160018201548152602001600282015481526020016003820154815260200160048201548152602001600582018054611032906134f5565b80601f016020809104026020016040519081016040528092919081815260200182805461105e906134f5565b80156110ab5780601f10611080576101008083540402835291602001916110ab565b820191906000526020600020905b81548152906001019060200180831161108e57829003601f168201915b505050505081526020016006820180546110c4906134f5565b80601f01602080910402602001604051908101604052809291908181526020018280546110f0906134f5565b801561113d5780601f106111125761010080835404028352916020019161113d565b820191906000526020600020905b81548152906001019060200180831161112057829003601f168201915b50505050508152602001600782018054806020026020016040519081016040528092919081815260200182805480156111cb57602002820191906000526020600020905b8160009054906101000a900473ffffffffffffffffffffffffffffffffffffffff1673ffffffffffffffffffffffffffffffffffffffff1681526020019060010190808311611181575b505050505081526020016008820180548060200260200160405190810160405280929190818152602001828054801561125957602002820191906000526020600020905b8160009054906101000a900473ffffffffffffffffffffffffffffffffffffffff1673ffffffffffffffffffffffffffffffffffffffff168152602001906001019080831161120f575b505050505081526020016009820160009054906101000a900460ff1615151515815250509050611543565b600360008154811061129957611298612e35565b5b90600052602060002090600a02016040518061014001604052908160008201548152602001600182015481526020016002820154815260200160038201548152602001600482015481526020016005820180546112f5906134f5565b80601f0160208091040260200160405190810160405280929190818152602001828054611321906134f5565b801561136e5780601f106113435761010080835404028352916020019161136e565b820191906000526020600020905b81548152906001019060200180831161135157829003601f168201915b50505050508152602001600682018054611387906134f5565b80601f01602080910402602001604051908101604052809291908181526020018280546113b3906134f5565b80156114005780601f106113d557610100808354040283529160200191611400565b820191906000526020600020905b8154815290600101906020018083116113e357829003601f168201915b505050505081526020016007820180548060200260200160405190810160405280929190818152602001828054801561148e57602002820191906000526020600020905b8160009054906101000a900473ffffffffffffffffffffffffffffffffffffffff1673ffffffffffffffffffffffffffffffffffffffff1681526020019060010190808311611444575b505050505081526020016008820180548060200260200160405190810160405280929190818152602001828054801561151c57602002820191906000526020600020905b8160009054906101000a900473ffffffffffffffffffffffffffffffffffffffff1673ffffffffffffffffffffffffffffffffffffffff16815260200190600101908083116114d2575b505050505081526020016009820160009054906101000a900460ff16151515158152505090505b90565b61154e612392565b6003828154811061156257611561612e35565b5b90600052602060002090600a02016040518061014001604052908160008201548152602001600182015481526020016002820154815260200160038201548152602001600482015481526020016005820180546115be906134f5565b80601f01602080910402602001604051908101604052809291908181526020018280546115ea906134f5565b80156116375780601f1061160c57610100808354040283529160200191611637565b820191906000526020600020905b81548152906001019060200180831161161a57829003601f168201915b50505050508152602001600682018054611650906134f5565b80601f016020809104026020016040519081016040528092919081815260200182805461167c906134f5565b80156116c95780601f1061169e576101008083540402835291602001916116c9565b820191906000526020600020905b8154815290600101906020018083116116ac57829003601f168201915b505050505081526020016007820180548060200260200160405190810160405280929190818152602001828054801561175757602002820191906000526020600020905b8160009054906101000a900473ffffffffffffffffffffffffffffffffffffffff1673ffffffffffffffffffffffffffffffffffffffff168152602001906001019080831161170d575b50505050508152602001600882018054806020026020016040519081016040528092919081815260200182805480156117e557602002820191906000526020600020905b8160009054906101000a900473ffffffffffffffffffffffffffffffffffffffff1673ffffffffffffffffffffffffffffffffffffffff168152602001906001019080831161179b575b505050505081526020016009820160009054906101000a900460ff1615151515815250509050919050565b600042600360016003805490506118279190612fb0565b8154811061183857611837612e35565b5b90600052602060002090600a0201600401541061188a576040517f08c379a0000000000000000000000000000000000000000000000000000000008152600401611881906139c9565b60405180910390fd5b6001600360016003805490506118a09190612fb0565b815481106118b1576118b0612e35565b5b90600052602060002090600a020160090160006101000a81548160ff021916908315150217905550600360016003805490506118ed9190612fb0565b815481106118fe576118fd612e35565b5b90600052602060002090600a020160080180549050600360016003805490506119279190612fb0565b8154811061193857611937612e35565b5b90600052602060002090600a02016007018054905011156119ea57600360016003805490506119679190612fb0565b8154811061197857611977612e35565b5b90600052602060002090600a0201600201546005600360016003805490506119a09190612fb0565b815481106119b1576119b0612e35565b5b90600052602060002090600a020160000154815481106119d4576119d3612e35565b5b9060005260206000209060090201600101819055505b6001905090565b6119f96123e7565b60058281548110611a0d57611a0c612e35565b5b906000526020600020906009020160405180610120016040529081600082015481526020016001820154815260200160028201548152602001600382018054611a55906134f5565b80601f0160208091040260200160405190810160405280929190818152602001828054611a81906134f5565b8015611ace5780601f10611aa357610100808354040283529160200191611ace565b820191906000526020600020905b815481529060010190602001808311611ab157829003601f168201915b50505050508152602001600482018054611ae7906134f5565b80601f0160208091040260200160405190810160405280929190818152602001828054611b13906134f5565b8015611b605780601f10611b3557610100808354040283529160200191611b60565b820191906000526020600020905b815481529060010190602001808311611b4357829003601f168201915b50505050508152602001600582018054611b79906134f5565b80601f0160208091040260200160405190810160405280929190818152602001828054611ba5906134f5565b8015611bf25780601f10611bc757610100808354040283529160200191611bf2565b820191906000526020600020905b815481529060010190602001808311611bd557829003601f168201915b50505050508152602001600682018054611c0b906134f5565b80601f0160208091040260200160405190810160405280929190818152602001828054611c37906134f5565b8015611c845780601f10611c5957610100808354040283529160200191611c84565b820191906000526020600020905b815481529060010190602001808311611c6757829003601f168201915b50505050508152602001600782018054611c9d906134f5565b80601f0160208091040260200160405190810160405280929190818152602001828054611cc9906134f5565b8015611d165780601f10611ceb57610100808354040283529160200191611d16565b820191906000526020600020905b815481529060010190602001808311611cf957829003601f168201915b50505050508152602001600882018054611d2f906134f5565b80601f0160208091040260200160405190810160405280929190818152602001828054611d5b906134f5565b8015611da85780601f10611d7d57610100808354040283529160200191611da8565b820191906000526020600020905b815481529060010190602001808311611d8b57829003601f168201915b5050505050815250509050919050565b60606005805480602002602001604051908101604052809291908181526020016000905b82821015612199578382906000526020600020906009020160405180610120016040529081600082015481526020016001820154815260200160028201548152602001600382018054611e2e906134f5565b80601f0160208091040260200160405190810160405280929190818152602001828054611e5a906134f5565b8015611ea75780601f10611e7c57610100808354040283529160200191611ea7565b820191906000526020600020905b815481529060010190602001808311611e8a57829003601f168201915b50505050508152602001600482018054611ec0906134f5565b80601f0160208091040260200160405190810160405280929190818152602001828054611eec906134f5565b8015611f395780601f10611f0e57610100808354040283529160200191611f39565b820191906000526020600020905b815481529060010190602001808311611f1c57829003601f168201915b50505050508152602001600582018054611f52906134f5565b80601f0160208091040260200160405190810160405280929190818152602001828054611f7e906134f5565b8015611fcb5780601f10611fa057610100808354040283529160200191611fcb565b820191906000526020600020905b815481529060010190602001808311611fae57829003601f168201915b50505050508152602001600682018054611fe4906134f5565b80601f0160208091040260200160405190810160405280929190818152602001828054612010906134f5565b801561205d5780601f106120325761010080835404028352916020019161205d565b820191906000526020600020905b81548152906001019060200180831161204057829003601f168201915b50505050508152602001600782018054612076906134f5565b80601f01602080910402602001604051908101604052809291908181526020018280546120a2906134f5565b80156120ef5780601f106120c4576101008083540402835291602001916120ef565b820191906000526020600020905b8154815290600101906020018083116120d257829003601f168201915b50505050508152602001600882018054612108906134f5565b80601f0160208091040260200160405190810160405280929190818152602001828054612134906134f5565b80156121815780601f1061215657610100808354040283529160200191612181565b820191906000526020600020905b81548152906001019060200180831161216457829003601f168201915b50505050508152505081526020019060010190611ddc565b50505050905090565b600080600360016003805490506121b99190612fb0565b815481106121ca576121c9612e35565b5b90600052602060002090600a020160090160009054906101000a900460ff161560016003805490506121fc9190612fb0565b915091509091565b600080600080600560018154811061221f5761221e612e35565b5b906000526020600020906009020160010154600560028154811061224657612245612e35565b5b906000526020600020906009020160010154600560048154811061226d5761226c612e35565b5b9060005260206000209060090201600101546005808154811061229357612292612e35565b5b906000526020600020906009020160010154935093509350935090919293565b6000600582815481106122c9576122c8612e35565b5b9060005260206000209060090201600101549050919050565b600260009054906101000a900473ffffffffffffffffffffffffffffffffffffffff1681565b828054828255906000526020600020908101928215612381579160200282015b828111156123805782518260006101000a81548173ffffffffffffffffffffffffffffffffffffffff021916908373ffffffffffffffffffffffffffffffffffffffff16021790555091602001919060010190612328565b5b50905061238e9190612433565b5090565b6040518061014001604052806000815260200160008152602001600081526020016000815260200160008152602001606081526020016060815260200160608152602001606081526020016000151581525090565b6040518061012001604052806000815260200160008152602001600081526020016060815260200160608152602001606081526020016060815260200160608152602001606081525090565b5b8082111561244c576000816000905550600101612434565b5090565b6000604051905090565b600080fd5b600080fd5b6000819050919050565b61247781612464565b811461248257600080fd5b50565b6000813590506124948161246e565b92915050565b600080fd5b600080fd5b6000601f19601f8301169050919050565b7f4e487b7100000000000000000000000000000000000000000000000000000000600052604160045260246000fd5b6124ed826124a4565b810181811067ffffffffffffffff8211171561250c5761250b6124b5565b5b80604052505050565b600061251f612450565b905061252b82826124e4565b919050565b600067ffffffffffffffff82111561254b5761254a6124b5565b5b612554826124a4565b9050602081019050919050565b82818337600083830152505050565b600061258361257e84612530565b612515565b90508281526020810184848401111561259f5761259e61249f565b5b6125aa848285612561565b509392505050565b600082601f8301126125c7576125c661249a565b5b81356125d7848260208601612570565b91505092915050565b600080600080600060a086880312156125fc576125fb61245a565b5b600061260a88828901612485565b955050602061261b88828901612485565b945050604086013567ffffffffffffffff81111561263c5761263b61245f565b5b612648888289016125b2565b935050606086013567ffffffffffffffff8111156126695761266861245f565b5b612675888289016125b2565b925050608061268688828901612485565b9150509295509295909350565b60008115159050919050565b6126a881612693565b82525050565b60006020820190506126c3600083018461269f565b92915050565b6126d281612464565b82525050565b60006060820190506126ed60008301866126c9565b6126fa60208301856126c9565b61270760408301846126c9565b949350505050565b600060408201905061272460008301856126c9565b61273160208301846126c9565b9392505050565b600060208201905061274d60008301846126c9565b92915050565b61275c81612693565b811461276757600080fd5b50565b60008135905061277981612753565b92915050565b6000602082840312156127955761279461245a565b5b60006127a38482850161276a565b91505092915050565b6127b581612464565b82525050565b600081519050919050565b600082825260208201905092915050565b60005b838110156127f55780820151818401526020810190506127da565b60008484015250505050565b600061280c826127bb565b61281681856127c6565b93506128268185602086016127d7565b61282f816124a4565b840191505092915050565b600081519050919050565b600082825260208201905092915050565b6000819050602082019050919050565b600073ffffffffffffffffffffffffffffffffffffffff82169050919050565b600061289182612866565b9050919050565b6128a181612886565b82525050565b60006128b38383612898565b60208301905092915050565b6000602082019050919050565b60006128d78261283a565b6128e18185612845565b93506128ec83612856565b8060005b8381101561291d57815161290488826128a7565b975061290f836128bf565b9250506001810190506128f0565b5085935050505092915050565b61293381612693565b82525050565b60006101408301600083015161295260008601826127ac565b50602083015161296560208601826127ac565b50604083015161297860408601826127ac565b50606083015161298b60608601826127ac565b50608083015161299e60808601826127ac565b5060a083015184820360a08601526129b68282612801565b91505060c083015184820360c08601526129d08282612801565b91505060e083015184820360e08601526129ea82826128cc565b915050610100830151848203610100860152612a0682826128cc565b915050610120830151612a1d61012086018261292a565b508091505092915050565b60006020820190508181036000830152612a428184612939565b905092915050565b600060208284031215612a6057612a5f61245a565b5b6000612a6e84828501612485565b91505092915050565b600061012083016000830151612a9060008601826127ac565b506020830151612aa360208601826127ac565b506040830151612ab660408601826127ac565b5060608301518482036060860152612ace8282612801565b91505060808301518482036080860152612ae88282612801565b91505060a083015184820360a0860152612b028282612801565b91505060c083015184820360c0860152612b1c8282612801565b91505060e083015184820360e0860152612b368282612801565b915050610100830151848203610100860152612b528282612801565b9150508091505092915050565b60006020820190508181036000830152612b798184612a77565b905092915050565b600081519050919050565b600082825260208201905092915050565b6000819050602082019050919050565b600061012083016000830151612bc660008601826127ac565b506020830151612bd960208601826127ac565b506040830151612bec60408601826127ac565b5060608301518482036060860152612c048282612801565b91505060808301518482036080860152612c1e8282612801565b91505060a083015184820360a0860152612c388282612801565b91505060c083015184820360c0860152612c528282612801565b91505060e083015184820360e0860152612c6c8282612801565b915050610100830151848203610100860152612c888282612801565b9150508091505092915050565b6000612ca18383612bad565b905092915050565b6000602082019050919050565b6000612cc182612b81565b612ccb8185612b8c565b935083602082028501612cdd85612b9d565b8060005b85811015612d195784840389528151612cfa8582612c95565b9450612d0583612ca9565b925060208a01995050600181019050612ce1565b50829750879550505050505092915050565b60006020820190508181036000830152612d458184612cb6565b905092915050565b6000604082019050612d62600083018561269f565b612d6f60208301846126c9565b9392505050565b6000608082019050612d8b60008301876126c9565b612d9860208301866126c9565b612da560408301856126c9565b612db260608301846126c9565b95945050505050565b6000819050919050565b6000612de0612ddb612dd684612866565b612dbb565b612866565b9050919050565b6000612df282612dc5565b9050919050565b6000612e0482612de7565b9050919050565b612e1481612df9565b82525050565b6000602082019050612e2f6000830184612e0b565b92915050565b7f4e487b7100000000000000000000000000000000000000000000000000000000600052603260045260246000fd5b612e6d81612886565b82525050565b6000604082019050612e886000830185612e64565b612e956020830184612e64565b9392505050565b600081519050612eab8161246e565b92915050565b600060208284031215612ec757612ec661245a565b5b6000612ed584828501612e9c565b91505092915050565b600082825260208201905092915050565b7f4e6f7420656e6f75676820746f6b656e7320746f20686f6c6420616e20656c6560008201527f6374696f6e000000000000000000000000000000000000000000000000000000602082015250565b6000612f4b602583612ede565b9150612f5682612eef565b604082019050919050565b60006020820190508181036000830152612f7a81612f3e565b9050919050565b7f4e487b7100000000000000000000000000000000000000000000000000000000600052601160045260246000fd5b6000612fbb82612464565b9150612fc683612464565b9250828203905081811115612fde57612fdd612f81565b5b92915050565b7f5468652070726576696f757320656c656374696f6e20686173206e6f7420656e60008201527f6465640000000000000000000000000000000000000000000000000000000000602082015250565b6000613040602383612ede565b915061304b82612fe4565b604082019050919050565b6000602082019050818103600083015261306f81613033565b9050919050565b7f546865206576656e7420706572696f64206973206561726c696572207468616e60008201527f207468652063757272656e742074696d65000000000000000000000000000000602082015250565b60006130d2603183612ede565b91506130dd82613076565b604082019050919050565b60006020820190508181036000830152613101816130c5565b9050919050565b60008160011c9050919050565b6000808291508390505b600185111561315f5780860481111561313b5761313a612f81565b5b600185161561314a5780820291505b808102905061315885613108565b945061311f565b94509492505050565b6000826131785760019050613234565b816131865760009050613234565b816001811461319c57600281146131a6576131d5565b6001915050613234565b60ff8411156131b8576131b7612f81565b5b8360020a9150848211156131cf576131ce612f81565b5b50613234565b5060208310610133831016604e8410600b841016171561320a5782820a90508381111561320557613204612f81565b5b613234565b6132178484846001613115565b9250905081840481111561322e5761322d612f81565b5b81810290505b9392505050565b600061324682612464565b915061325183612464565b925061327e7fffffffffffffffffffffffffffffffffffffffffffffffffffffffffffffffff8484613168565b905092915050565b600061329182612464565b915061329c83612464565b92508282026132aa81612464565b915082820484148315176132c1576132c0612f81565b5b5092915050565b7f4e487b7100000000000000000000000000000000000000000000000000000000600052601260045260246000fd5b600061330282612464565b915061330d83612464565b92508261331d5761331c6132c8565b5b828204905092915050565b600061333382612464565b915061333e83612464565b925082820190508082111561335657613355612f81565b5b92915050565b7f54686520656c656374696f6e20706572696f6420697320746f6f2073686f7274600082015250565b6000613392602083612ede565b915061339d8261335c565b602082019050919050565b600060208201905081810360008301526133c181613385565b9050919050565b7f54686520656c656374696f6e20706572696f6420697320746f6f206c6f6e6700600082015250565b60006133fe601f83612ede565b9150613409826133c8565b602082019050919050565b6000602082019050818103600083015261342d816133f1565b9050919050565b7f54686973206973206e6f7420616e20656c656374696f6e20666f722064756d6d60008201527f7920706172616d65746572730000000000000000000000000000000000000000602082015250565b6000613490602c83612ede565b915061349b82613434565b604082019050919050565b600060208201905081810360008301526134bf81613483565b9050919050565b7f4e487b7100000000000000000000000000000000000000000000000000000000600052602260045260246000fd5b6000600282049050600182168061350d57607f821691505b6020821081036135205761351f6134c6565b5b50919050565b60008190508160005260206000209050919050565b60006020601f8301049050919050565b600082821b905092915050565b6000600883026135887fffffffffffffffffffffffffffffffffffffffffffffffffffffffffffffffff8261354b565b613592868361354b565b95508019841693508086168417925050509392505050565b60006135c56135c06135bb84612464565b612dbb565b612464565b9050919050565b6000819050919050565b6135df836135aa565b6135f36135eb826135cc565b848454613558565b825550505050565b600090565b6136086135fb565b6136138184846135d6565b505050565b5b818110156136375761362c600082613600565b600181019050613619565b5050565b601f82111561367c5761364d81613526565b6136568461353b565b81016020851015613665578190505b6136796136718561353b565b830182613618565b50505b505050565b600082821c905092915050565b600061369f60001984600802613681565b1980831691505092915050565b60006136b8838361368e565b9150826002028217905092915050565b6136d1826127bb565b67ffffffffffffffff8111156136ea576136e96124b5565b5b6136f482546134f5565b6136ff82828561363b565b600060209050601f8311600181146137325760008415613720578287015190505b61372a85826136ac565b865550613792565b601f19841661374086613526565b60005b8281101561376857848901518255600182019150602085019450602081019050613743565b868310156137855784890151613781601f89168261368e565b8355505b6001600288020188555050505b505050505050565b60006060820190506137af6000830186612e64565b6137bc6020830185612e64565b6137c960408301846126c9565b949350505050565b6000815190506137e081612753565b92915050565b6000602082840312156137fc576137fb61245a565b5b600061380a848285016137d1565b91505092915050565b7f5472616e73666572206661696c65640000000000000000000000000000000000600082015250565b6000613849600f83612ede565b915061385482613813565b602082019050919050565b600060208201905081810360008301526138788161383c565b9050919050565b7f54686520656c656374696f6e20706572696f642068617320656e646564000000600082015250565b60006138b5601d83612ede565b91506138c08261387f565b602082019050919050565b600060208201905081810360008301526138e4816138a8565b9050919050565b7f54686520766f74696e6720706572696f642068617320656e6465640000000000600082015250565b6000613921601b83612ede565b915061392c826138eb565b602082019050919050565b6000602082019050818103600083015261395081613914565b9050919050565b7f54686520656c656374696f6e20706572696f6420686173206e6f7420656e646560008201527f6400000000000000000000000000000000000000000000000000000000000000602082015250565b60006139b3602183612ede565b91506139be82613957565b604082019050919050565b600060208201905081810360008301526139e2816139a6565b905091905056fea2646970667358221220c472a806f28625dd3b2172cd27633a777ad7a97973490095d2a50d267216c48d64736f6c63430008120033e981b8e68c99e381aee9968be582ace69c9fe99693e381aee69c80e5a4a7e580a4546f6b656e7320726571756972656420746f20686f6c6420656c656374696f6e734661637420636865636b207375626d697373696f6e20706572696f6420286d6178696d756d29e981b8e68c99e381aee9968be582ace69c9fe99693e381aee69c80e4bd8ee580a4e38395e382a1e382afe38388e38381e382a7e38383e382afe381aee58b9fe99b86e69c9fe9969328e69c80e4bd8ee580a429e38395e382a1e382afe38388e38381e382a7e38383e382afe381b8e381aee8a995e4bea1e58f97e4bb98e69982e99693e981b8e68c99e3818ce68890e7ab8be38199e3828be381aee381abe5bf85e8a681e381aae4babae695b0546865206e756d626572206f662070656f706c6520726571756972656420746f20686f6c6420616e20656c656374696f6ee38395e382a1e382afe38388e38381e382a7e38383e382afe381aee58b9fe99b86e69c9fe99693e381aee69c80e5a4a7e580a4e981b8e68c99e38292e9968be582ace38199e3828be99a9be381abe5bf85e8a681e381aae38388e383bce382afe383b36e756d626572206f6620666163742d636865636b20766f7465732070657220706572736f6e20666f7220612072657175657374e38395e382a1e382afe38388e38381e382a7e38383e382afe381aee68a95e7a8bfe69699e98791e38395e382a1e382afe38388e38381e382a7e38383e382afe381aee4be9de9a0bce69699e98791e381aee69c80e4bd8ee580a4e981b8e68c99e381abe68a95e7a5a8e38199e3828be99a9be381abe5bf85e8a681e381aae38388e383bce382afe383b3546f6b656e7320726571756972656420746f20766f746520696e20656c656374696f6e73e38395e382a1e382afe38388e38381e382a7e38383e382afe381aee58b9fe99b86e69c9fe99693e381aee69c80e4bd8ee580a44661637420636865636b207375626d697373696f6e20706572696f6420286d696e696d756d29e4be9de9a0bce381abe5afbee38199e3828be38395e382a1e382afe38388e38381e382a7e38383e382afe381b8e381ae31e4babae5bd93e3819fe3828ae381aee68a95e7a5a8e695b0e38395e382a1e382afe38388e38381e382a7e38383e382afe381aee58b9fe99b86e69c9fe9969328e69c80e5a4a7e580a4294d6178696d756d204661637420436865636b20526563727569746d656e7420506572696f644d696e696d756d204661637420436865636b20526563727569746d656e7420506572696f64e38395e382a1e382afe38388e38381e382a7e38383e382afe381aee4be9de9a0bce69699e9879128e69c80e4bd8ee580a429",
  "linkReferences": {},
  "deployedLinkReferences": {}
}