{
  "_format": "hh-sol-artifact-1",
  "contractName": "FactCheck_Contract",
  "sourceName": "contracts/FactCheck.sol",
  "abi": [
    {
      "inputs": [],
      "stateMutability": "nonpayable",
      "type": "constructor"
    },
    {
      "anonymous": false,
      "inputs": [
        {
          "indexed": false,
          "internalType": "uint256",
          "name": "requestId",
          "type": "uint256"
        },
        {
          "indexed": false,
          "internalType": "string",
          "name": "title",
          "type": "string"
        },
        {
          "indexed": false,
          "internalType": "string",
          "name": "description",
          "type": "string"
        },
        {
          "indexed": false,
          "internalType": "string",
          "name": "thumbnail_url",
          "type": "string"
        },
        {
          "indexed": true,
          "internalType": "address",
          "name": "author",
          "type": "address"
        },
        {
          "indexed": false,
          "internalType": "uint256",
          "name": "reward",
          "type": "uint256"
        },
        {
          "indexed": true,
          "internalType": "uint256",
          "name": "deadline",
          "type": "uint256"
        },
        {
          "indexed": false,
          "internalType": "uint256",
          "name": "created_at",
          "type": "uint256"
        },
        {
          "indexed": true,
          "internalType": "uint256",
          "name": "category_index",
          "type": "uint256"
        }
      ],
      "name": "RequestFactcheck",
      "type": "event"
    },
    {
      "anonymous": false,
      "inputs": [
        {
          "indexed": false,
          "internalType": "uint256",
          "name": "requestId",
          "type": "uint256"
        },
        {
          "indexed": false,
          "internalType": "uint256",
          "name": "receiveId",
          "type": "uint256"
        },
        {
          "indexed": false,
          "internalType": "string",
          "name": "title",
          "type": "string"
        },
        {
          "indexed": false,
          "internalType": "string",
          "name": "description",
          "type": "string"
        },
        {
          "indexed": true,
          "internalType": "address",
          "name": "author",
          "type": "address"
        },
        {
          "indexed": false,
          "internalType": "uint256",
          "name": "created_at",
          "type": "uint256"
        },
        {
          "indexed": true,
          "internalType": "uint256",
          "name": "result",
          "type": "uint256"
        }
      ],
      "name": "SubmitFactcheck",
      "type": "event"
    },
    {
      "anonymous": false,
      "inputs": [
        {
          "indexed": false,
          "internalType": "uint256",
          "name": "requestId",
          "type": "uint256"
        },
        {
          "indexed": true,
          "internalType": "address",
          "name": "author",
          "type": "address"
        },
        {
          "indexed": false,
          "internalType": "uint256",
          "name": "created_at",
          "type": "uint256"
        }
      ],
      "name": "VoteFactcheck",
      "type": "event"
    },
    {
      "inputs": [
        {
          "internalType": "uint256",
          "name": "",
          "type": "uint256"
        }
      ],
      "name": "categories",
      "outputs": [
        {
          "internalType": "uint256",
          "name": "id",
          "type": "uint256"
        },
        {
          "internalType": "string",
          "name": "name",
          "type": "string"
        }
      ],
      "stateMutability": "view",
      "type": "function"
    },
    {
      "inputs": [
        {
          "internalType": "uint256",
          "name": "_requestId",
          "type": "uint256"
        }
      ],
      "name": "finalizeFactcheck",
      "outputs": [],
      "stateMutability": "nonpayable",
      "type": "function"
    },
    {
      "inputs": [
        {
          "internalType": "uint256",
          "name": "_requestId",
          "type": "uint256"
        }
      ],
      "name": "getFactCheckForRequest",
      "outputs": [
        {
          "components": [
            {
              "internalType": "uint256",
              "name": "id",
              "type": "uint256"
            },
            {
              "internalType": "uint256",
              "name": "request_id",
              "type": "uint256"
            },
            {
              "internalType": "string",
              "name": "title",
              "type": "string"
            },
            {
              "internalType": "string",
              "name": "description",
              "type": "string"
            },
            {
              "internalType": "uint256",
              "name": "format_version",
              "type": "uint256"
            },
            {
              "internalType": "string",
              "name": "content",
              "type": "string"
            },
            {
              "components": [
                {
                  "internalType": "uint256",
                  "name": "id",
                  "type": "uint256"
                },
                {
                  "internalType": "string",
                  "name": "title",
                  "type": "string"
                },
                {
                  "internalType": "string",
                  "name": "description",
                  "type": "string"
                }
              ],
              "internalType": "struct FactCheck_Contract.Rating",
              "name": "rate",
              "type": "tuple"
            },
            {
              "internalType": "address",
              "name": "author",
              "type": "address"
            },
            {
              "internalType": "uint256",
              "name": "created_at",
              "type": "uint256"
            },
            {
              "internalType": "uint256",
              "name": "evaluation",
              "type": "uint256"
            }
          ],
          "internalType": "struct FactCheck_Contract.FactCheck[]",
          "name": "",
          "type": "tuple[]"
        }
      ],
      "stateMutability": "view",
      "type": "function"
    },
    {
      "inputs": [
        {
          "components": [
            {
              "internalType": "uint256",
              "name": "first",
              "type": "uint256"
            },
            {
              "internalType": "uint256",
              "name": "second",
              "type": "uint256"
            }
          ],
          "internalType": "struct FactCheck_Contract.Pair[]",
          "name": "_ids",
          "type": "tuple[]"
        }
      ],
      "name": "getFactchecks",
      "outputs": [
        {
          "components": [
            {
              "internalType": "uint256",
              "name": "id",
              "type": "uint256"
            },
            {
              "internalType": "uint256",
              "name": "request_id",
              "type": "uint256"
            },
            {
              "internalType": "string",
              "name": "title",
              "type": "string"
            },
            {
              "internalType": "string",
              "name": "description",
              "type": "string"
            },
            {
              "internalType": "uint256",
              "name": "format_version",
              "type": "uint256"
            },
            {
              "internalType": "string",
              "name": "content",
              "type": "string"
            },
            {
              "components": [
                {
                  "internalType": "uint256",
                  "name": "id",
                  "type": "uint256"
                },
                {
                  "internalType": "string",
                  "name": "title",
                  "type": "string"
                },
                {
                  "internalType": "string",
                  "name": "description",
                  "type": "string"
                }
              ],
              "internalType": "struct FactCheck_Contract.Rating",
              "name": "rate",
              "type": "tuple"
            },
            {
              "internalType": "address",
              "name": "author",
              "type": "address"
            },
            {
              "internalType": "uint256",
              "name": "created_at",
              "type": "uint256"
            },
            {
              "internalType": "uint256",
              "name": "evaluation",
              "type": "uint256"
            }
          ],
          "internalType": "struct FactCheck_Contract.FactCheck[]",
          "name": "",
          "type": "tuple[]"
        }
      ],
      "stateMutability": "view",
      "type": "function"
    },
    {
      "inputs": [
        {
          "internalType": "uint256[]",
          "name": "ids",
          "type": "uint256[]"
        }
      ],
      "name": "getRequests",
      "outputs": [
        {
          "components": [
            {
              "internalType": "uint256",
              "name": "id",
              "type": "uint256"
            },
            {
              "internalType": "uint256",
              "name": "format_version",
              "type": "uint256"
            },
            {
              "internalType": "string",
              "name": "title",
              "type": "string"
            },
            {
              "internalType": "string",
              "name": "description",
              "type": "string"
            },
            {
              "internalType": "string",
              "name": "thumbnail_url",
              "type": "string"
            },
            {
              "internalType": "string",
              "name": "content",
              "type": "string"
            },
            {
              "internalType": "address",
              "name": "author",
              "type": "address"
            },
            {
              "internalType": "uint256",
              "name": "reward",
              "type": "uint256"
            },
            {
              "internalType": "uint256",
              "name": "deadline",
              "type": "uint256"
            },
            {
              "internalType": "uint256",
              "name": "created_at",
              "type": "uint256"
            },
            {
              "components": [
                {
                  "internalType": "uint256",
                  "name": "id",
                  "type": "uint256"
                },
                {
                  "internalType": "string",
                  "name": "name",
                  "type": "string"
                }
              ],
              "internalType": "struct FactCheck_Contract.Category",
              "name": "category",
              "type": "tuple"
            }
          ],
          "internalType": "struct FactCheck_Contract.Factcheck_request[]",
          "name": "",
          "type": "tuple[]"
        }
      ],
      "stateMutability": "view",
      "type": "function"
    },
    {
      "inputs": [
        {
          "internalType": "address",
          "name": "_target",
          "type": "address"
        }
      ],
      "name": "getUserprofile",
      "outputs": [
        {
          "components": [
            {
              "internalType": "uint256[]",
              "name": "request_ids",
              "type": "uint256[]"
            },
            {
              "components": [
                {
                  "internalType": "uint256",
                  "name": "first",
                  "type": "uint256"
                },
                {
                  "internalType": "uint256",
                  "name": "second",
                  "type": "uint256"
                }
              ],
              "internalType": "struct FactCheck_Contract.Pair[]",
              "name": "factcheck_ids",
              "type": "tuple[]"
            },
            {
              "internalType": "uint256[]",
              "name": "vote_ids",
              "type": "uint256[]"
            },
            {
              "internalType": "string",
              "name": "username",
              "type": "string"
            },
            {
              "internalType": "string",
              "name": "introduction",
              "type": "string"
            }
          ],
          "internalType": "struct FactCheck_Contract.UserProfile",
          "name": "",
          "type": "tuple"
        }
      ],
      "stateMutability": "view",
      "type": "function"
    },
    {
      "inputs": [
        {
          "internalType": "uint256",
          "name": "_requestId",
          "type": "uint256"
        },
        {
          "internalType": "address",
          "name": "_target",
          "type": "address"
        }
      ],
      "name": "getVoteSettings",
      "outputs": [
        {
          "internalType": "uint256",
          "name": "",
          "type": "uint256"
        },
        {
          "internalType": "uint256[]",
          "name": "",
          "type": "uint256[]"
        },
        {
          "internalType": "bool",
          "name": "",
          "type": "bool"
        }
      ],
      "stateMutability": "view",
      "type": "function"
    },
    {
      "inputs": [
        {
          "internalType": "uint256[]",
          "name": "_ids",
          "type": "uint256[]"
        }
      ],
      "name": "getVotes",
      "outputs": [
        {
          "components": [
            {
              "internalType": "uint256",
              "name": "id",
              "type": "uint256"
            },
            {
              "internalType": "uint256",
              "name": "format_version",
              "type": "uint256"
            },
            {
              "internalType": "string",
              "name": "title",
              "type": "string"
            },
            {
              "internalType": "string",
              "name": "description",
              "type": "string"
            },
            {
              "internalType": "string",
              "name": "thumbnail_url",
              "type": "string"
            },
            {
              "internalType": "string",
              "name": "content",
              "type": "string"
            },
            {
              "internalType": "address",
              "name": "author",
              "type": "address"
            },
            {
              "internalType": "uint256",
              "name": "reward",
              "type": "uint256"
            },
            {
              "internalType": "uint256",
              "name": "deadline",
              "type": "uint256"
            },
            {
              "internalType": "uint256",
              "name": "created_at",
              "type": "uint256"
            },
            {
              "components": [
                {
                  "internalType": "uint256",
                  "name": "id",
                  "type": "uint256"
                },
                {
                  "internalType": "string",
                  "name": "name",
                  "type": "string"
                }
              ],
              "internalType": "struct FactCheck_Contract.Category",
              "name": "category",
              "type": "tuple"
            }
          ],
          "internalType": "struct FactCheck_Contract.Factcheck_request[]",
          "name": "",
          "type": "tuple[]"
        }
      ],
      "stateMutability": "view",
      "type": "function"
    },
    {
      "inputs": [],
      "name": "getcategories",
      "outputs": [
        {
          "components": [
            {
              "internalType": "uint256",
              "name": "id",
              "type": "uint256"
            },
            {
              "internalType": "string",
              "name": "name",
              "type": "string"
            }
          ],
          "internalType": "struct FactCheck_Contract.Category[]",
          "name": "",
          "type": "tuple[]"
        }
      ],
      "stateMutability": "view",
      "type": "function"
    },
    {
      "inputs": [],
      "name": "getratings",
      "outputs": [
        {
          "components": [
            {
              "internalType": "uint256",
              "name": "id",
              "type": "uint256"
            },
            {
              "internalType": "string",
              "name": "title",
              "type": "string"
            },
            {
              "internalType": "string",
              "name": "description",
              "type": "string"
            }
          ],
          "internalType": "struct FactCheck_Contract.Rating[]",
          "name": "",
          "type": "tuple[]"
        }
      ],
      "stateMutability": "view",
      "type": "function"
    },
    {
      "inputs": [
        {
          "internalType": "uint256",
          "name": "",
          "type": "uint256"
        }
      ],
      "name": "ratings",
      "outputs": [
        {
          "internalType": "uint256",
          "name": "id",
          "type": "uint256"
        },
        {
          "internalType": "string",
          "name": "title",
          "type": "string"
        },
        {
          "internalType": "string",
          "name": "description",
          "type": "string"
        }
      ],
      "stateMutability": "view",
      "type": "function"
    },
    {
      "inputs": [
        {
          "internalType": "uint256",
          "name": "_format_version",
          "type": "uint256"
        },
        {
          "internalType": "string",
          "name": "_title",
          "type": "string"
        },
        {
          "internalType": "string",
          "name": "_description",
          "type": "string"
        },
        {
          "internalType": "string",
          "name": "_thumbnailUrl",
          "type": "string"
        },
        {
          "internalType": "string",
          "name": "_content",
          "type": "string"
        },
        {
          "internalType": "uint256",
          "name": "_reward",
          "type": "uint256"
        },
        {
          "internalType": "uint256",
          "name": "_deadline",
          "type": "uint256"
        },
        {
          "internalType": "uint256",
          "name": "_category_index",
          "type": "uint256"
        }
      ],
      "name": "requestFactcheck",
      "outputs": [],
      "stateMutability": "nonpayable",
      "type": "function"
    },
    {
      "inputs": [
        {
          "internalType": "uint256",
          "name": "_requestId",
          "type": "uint256"
        },
        {
          "internalType": "string",
          "name": "_title",
          "type": "string"
        },
        {
          "internalType": "string",
          "name": "_description",
          "type": "string"
        },
        {
          "internalType": "uint256",
          "name": "_format_version",
          "type": "uint256"
        },
        {
          "internalType": "string",
          "name": "_content",
          "type": "string"
        },
        {
          "internalType": "uint256",
          "name": "_result",
          "type": "uint256"
        }
      ],
      "name": "submitFactcheck",
      "outputs": [],
      "stateMutability": "nonpayable",
      "type": "function"
    },
    {
      "inputs": [],
      "name": "token",
      "outputs": [
        {
          "internalType": "contract IERC20",
          "name": "",
          "type": "address"
        }
      ],
      "stateMutability": "view",
      "type": "function"
    },
    {
      "inputs": [
        {
          "internalType": "uint256[]",
          "name": "_votes",
          "type": "uint256[]"
        },
        {
          "internalType": "uint256",
          "name": "_total_votes",
          "type": "uint256"
        }
      ],
      "name": "veryfy_quadrativote",
      "outputs": [
        {
          "internalType": "bool",
          "name": "",
          "type": "bool"
        }
      ],
      "stateMutability": "pure",
      "type": "function"
    },
    {
      "inputs": [
        {
          "internalType": "uint256",
          "name": "_requestId",
          "type": "uint256"
        },
        {
          "internalType": "uint256[]",
          "name": "_votes",
          "type": "uint256[]"
        }
      ],
      "name": "voteFactcheck",
      "outputs": [],
      "stateMutability": "nonpayable",
      "type": "function"
    }
  ],
  "bytecode": "0x608060405273ed25c1e07250e3c45b1b468816fb159ae3e6640f6000806101000a81548173ffffffffffffffffffffffffffffffffffffffff021916908373ffffffffffffffffffffffffffffffffffffffff16021790555060008054906101000a900473ffffffffffffffffffffffffffffffffffffffff16600160006101000a81548173ffffffffffffffffffffffffffffffffffffffff021916908373ffffffffffffffffffffffffffffffffffffffff160217905550736f76413445679da9197350f593b01bf63fe596ab600260006101000a81548173ffffffffffffffffffffffffffffffffffffffff021916908373ffffffffffffffffffffffffffffffffffffffff160217905550600260009054906101000a900473ffffffffffffffffffffffffffffffffffffffff16600360006101000a81548173ffffffffffffffffffffffffffffffffffffffff021916908373ffffffffffffffffffffffffffffffffffffffff1602179055503480156200017e57600080fd5b5060076040518060600160405280600081526020016040518060400160405280600681526020017fe6ada3e7a2ba00000000000000000000000000000000000000000000000000008152508152602001604051806080016040528060428152602001620074dc604291398152509080600181540180825580915050600190039060005260206000209060030201600090919091909150600082015181600001556020820151816001019081620002359190620014f8565b5060408201518160020190816200024d9190620014f8565b50505060076040518060600160405280600181526020016040518060400160405280600c81526020017fe381bbe381bce6ada3e7a2ba0000000000000000000000000000000000000000815250815260200160405180608001604052806048815260200162007596604891398152509080600181540180825580915050600190039060005260206000209060030201600090919091909150600082015181600001556020820151816001019081620003069190620014f8565b5060408201518160020190816200031e9190620014f8565b50505060076040518060600160405280600281526020016040518060400160405280600f81526020017fe3839fe382b9e383aae383bce38389000000000000000000000000000000000081525081526020016040518060c0016040528060938152602001620075de609391398152509080600181540180825580915050600190039060005260206000209060030201600090919091909150600082015181600001556020820151816001019081620003d79190620014f8565b506040820151816002019081620003ef9190620014f8565b50505060076040518060600160405280600381526020016040518060400160405280600981526020017fe4b88de6ada3e7a2ba000000000000000000000000000000000000000000000081525081526020016040518060a00160405280606c8152602001620073ec606c91398152509080600181540180825580915050600190039060005260206000209060030201600090919091909150600082015181600001556020820151816001019081620004a89190620014f8565b506040820151816002019081620004c09190620014f8565b50505060076040518060600160405280600481526020016040518060400160405280600c81526020017fe6a0b9e68ba0e4b88de6988e000000000000000000000000000000000000000081525081526020016040518060800160405280605181526020016200739b605191398152509080600181540180825580915050600190039060005260206000209060030201600090919091909150600082015181600001556020820151816001019081620005799190620014f8565b506040820151816002019081620005919190620014f8565b50505060076040518060600160405280600581526020016040518060400160405280600681526020017fe8aaa4e3828a000000000000000000000000000000000000000000000000000081525081526020016040518060c0016040528060848152602001620074586084913981525090806001815401808255809150506001900390600052602060002090600302016000909190919091506000820151816000015560208201518160010190816200064a9190620014f8565b506040820151816002019081620006629190620014f8565b50505060076040518060600160405280600681526020016040518060400160405280600681526020017fe8999ae581bd000000000000000000000000000000000000000000000000000081525081526020016040518060600160405280603f8152602001620076da603f913981525090806001815401808255809150506001900390600052602060002090600302016000909190919091506000820151816000015560208201518160010190816200071b9190620014f8565b506040820151816002019081620007339190620014f8565b50505060076040518060600160405280600781526020016040518060400160405280600c81526020017fe588a4e5ae9ae79599e4bf9d000000000000000000000000000000000000000081525081526020016040518060a001604052806069815260200162007671606991398152509080600181540180825580915050600190039060005260206000209060030201600090919091909150600082015181600001556020820151816001019081620007ec9190620014f8565b506040820151816002019081620008049190620014f8565b50505060076040518060600160405280600881526020016040518060400160405280600f81526020017fe6a49ce8a8bce5afbee8b1a1e5a496000000000000000000000000000000000081525081526020016040518060a00160405280607881526020016200751e607891398152509080600181540180825580915050600190039060005260206000209060030201600090919091909150600082015181600001556020820151816001019081620008bd9190620014f8565b506040820151816002019081620008d59190620014f8565b50505060086040518060400160405280600081526020016040518060400160405280600681526020017fe381aae38197000000000000000000000000000000000000000000000000000081525081525090806001815401808255809150506001900390600052602060002090600202016000909190919091506000820151816000015560208201518160010190816200096f9190620014f8565b50505060086040518060400160405280600181526020016040518060400160405280600681526020017fe694bfe6b2bb0000000000000000000000000000000000000000000000000000815250815250908060018154018082558091505060019003906000526020600020906002020160009091909190915060008201518160000155602082015181600101908162000a099190620014f8565b50505060086040518060400160405280600281526020016040518060400160405280600681526020017fe7b58ce6b8880000000000000000000000000000000000000000000000000000815250815250908060018154018082558091505060019003906000526020600020906002020160009091909190915060008201518160000155602082015181600101908162000aa39190620014f8565b50505060086040518060400160405280600381526020016040518060400160405280600681526020017fe7a4bee4bc9a0000000000000000000000000000000000000000000000000000815250815250908060018154018082558091505060019003906000526020600020906002020160009091909190915060008201518160000155602082015181600101908162000b3d9190620014f8565b50505060086040518060400160405280600481526020016040518060400160405280600681526020017fe7a791e5ada60000000000000000000000000000000000000000000000000000815250815250908060018154018082558091505060019003906000526020600020906002020160009091909190915060008201518160000155602082015181600101908162000bd79190620014f8565b50505060086040518060400160405280600581526020016040518060400160405280600681526020017fe581a5e5bab70000000000000000000000000000000000000000000000000000815250815250908060018154018082558091505060019003906000526020600020906002020160009091909190915060008201518160000155602082015181600101908162000c719190620014f8565b50505060086040518060400160405280600681526020016040518060400160405280600681526020017fe792b0e5a2830000000000000000000000000000000000000000000000000000815250815250908060018154018082558091505060019003906000526020600020906002020160009091909190915060008201518160000155602082015181600101908162000d0b9190620014f8565b50505060086040518060400160405280600781526020016040518060400160405280601281526020017fe38386e382afe3838ee383ade382b8e383bc0000000000000000000000000000815250815250908060018154018082558091505060019003906000526020600020906002020160009091909190915060008201518160000155602082015181600101908162000da59190620014f8565b50505060086040518060400160405280600881526020016040518060400160405280601e81526020017fe382a8e383b3e382bfe383bce38386e382a4e383b3e383a1e383b3e383880000815250815250908060018154018082558091505060019003906000526020600020906002020160009091909190915060008201518160000155602082015181600101908162000e3f9190620014f8565b50505060086040518060400160405280600981526020016040518060400160405280600c81526020017fe382b9e3839de383bce383840000000000000000000000000000000000000000815250815250908060018154018082558091505060019003906000526020600020906002020160009091909190915060008201518160000155602082015181600101908162000ed99190620014f8565b50505060086040518060400160405280600a81526020016040518060400160405280600681526020017fe69599e882b20000000000000000000000000000000000000000000000000000815250815250908060018154018082558091505060019003906000526020600020906002020160009091909190915060008201518160000155602082015181600101908162000f739190620014f8565b50505060086040518060400160405280600b81526020016040518060400160405280600681526020017fe6adb4e58fb2000000000000000000000000000000000000000000000000000081525081525090806001815401808255809150506001900390600052602060002090600202016000909190919091506000820151816000015560208201518160010190816200100d9190620014f8565b50505060086040518060400160405280600c81526020016040518060400160405280600681526020017fe5ae97e6959900000000000000000000000000000000000000000000000000008152508152509080600181540180825580915050600190039060005260206000209060020201600090919091909150600082015181600001556020820151816001019081620010a79190620014f8565b50505060086040518060400160405280600d81526020016040518060400160405280600681526020017fe58cbbe7998200000000000000000000000000000000000000000000000000008152508152509080600181540180825580915050600190039060005260206000209060020201600090919091909150600082015181600001556020820151816001019081620011419190620014f8565b50505060086040518060400160405280600e81526020016040518060400160405280601581526020017fe382a4e383b3e382bfe383bce3838de38383e3838800000000000000000000008152508152509080600181540180825580915050600190039060005260206000209060020201600090919091909150600082015181600001556020820151816001019081620011db9190620014f8565b50505060086040518060400160405280600f81526020016040518060400160405280601b81526020017fe382bde383bce382b7e383a3e383abe383a1e38387e382a3e382a200000000008152508152509080600181540180825580915050600190039060005260206000209060020201600090919091909150600082015181600001556020820151816001019081620012759190620014f8565b505050620015df565b600081519050919050565b7f4e487b7100000000000000000000000000000000000000000000000000000000600052604160045260246000fd5b7f4e487b7100000000000000000000000000000000000000000000000000000000600052602260045260246000fd5b600060028204905060018216806200130057607f821691505b602082108103620013165762001315620012b8565b5b50919050565b60008190508160005260206000209050919050565b60006020601f8301049050919050565b600082821b905092915050565b600060088302620013807fffffffffffffffffffffffffffffffffffffffffffffffffffffffffffffffff8262001341565b6200138c868362001341565b95508019841693508086168417925050509392505050565b6000819050919050565b6000819050919050565b6000620013d9620013d3620013cd84620013a4565b620013ae565b620013a4565b9050919050565b6000819050919050565b620013f583620013b8565b6200140d6200140482620013e0565b8484546200134e565b825550505050565b600090565b6200142462001415565b62001431818484620013ea565b505050565b5b8181101562001459576200144d6000826200141a565b60018101905062001437565b5050565b601f821115620014a85762001472816200131c565b6200147d8462001331565b810160208510156200148d578190505b620014a56200149c8562001331565b83018262001436565b50505b505050565b600082821c905092915050565b6000620014cd60001984600802620014ad565b1980831691505092915050565b6000620014e88383620014ba565b9150826002028217905092915050565b62001503826200127e565b67ffffffffffffffff8111156200151f576200151e62001289565b5b6200152b8254620012e7565b620015388282856200145d565b600060209050601f8311600181146200157057600084156200155b578287015190505b620015678582620014da565b865550620015d7565b601f19841662001580866200131c565b60005b82811015620015aa5784890151825560018201915060208501945060208101905062001583565b86831015620015ca5784890151620015c6601f891682620014ba565b8355505b6001600288020188555050505b505050505050565b615dac80620015ef6000396000f3fe608060405234801561001057600080fd5b50600436106101005760003560e01c8063660c47de11610097578063c339b22711610066578063c339b227146102e9578063c6cdbe5e14610305578063e5d2560d14610336578063fc0c546a1461036657610100565b8063660c47de1461024f5780636674d0221461027f57806367bfdfe91461029b5780639c70900e146102b757610100565b80631a55342a116100d35780631a55342a146101a1578063331d6250146101d157806334360dfe146102015780635d30e84d1461021d57610100565b80630959814c146101055780630d4a7af51461013557806313e369c914610153578063161dd07f14610183575b600080fd5b61011f600480360381019061011a9190613af7565b610384565b60405161012c9190613dec565b60405180910390f35b61013d610624565b60405161014a9190613f27565b60405180910390f35b61016d600480360381019061016891906140bd565b6107b1565b60405161017a919061431f565b60405180910390f35b61018b610c1b565b6040516101989190614403565b60405180910390f35b6101bb60048036038101906101b691906140bd565b610d16565b6040516101c8919061431f565b60405180910390f35b6101eb60048036038101906101e69190614425565b611180565b6040516101f89190614603565b60405180910390f35b61021b600480360381019061021691906146da565b611573565b005b61023760048036038101906102329190614425565b611b81565b60405161024693929190614859565b60405180910390f35b610269600480360381019061026491906149bb565b611ccb565b6040516102769190614603565b60405180910390f35b61029960048036038101906102949190614a04565b612168565b005b6102b560048036038101906102b09190614a60565b6126e9565b005b6102d160048036038101906102cc9190614b41565b612f5e565b6040516102e093929190614c0b565b60405180910390f35b61030360048036038101906102fe9190614425565b613275565b005b61031f600480360381019061031a9190614425565b613761565b60405161032d929190614c49565b60405180910390f35b610350600480360381019061034b9190614c79565b61381d565b60405161035d9190614cd5565b60405180910390f35b61036e6138a6565b60405161037b9190614d4f565b60405180910390f35b61038c6138cc565b600a60008373ffffffffffffffffffffffffffffffffffffffff1673ffffffffffffffffffffffffffffffffffffffff1681526020019081526020016000206040518060a00160405290816000820180548060200260200160405190810160405280929190818152602001828054801561042557602002820191906000526020600020905b815481526020019060010190808311610411575b5050505050815260200160018201805480602002602001604051908101604052809291908181526020016000905b8282101561049957838290600052602060002090600202016040518060400160405290816000820154815260200160018201548152505081526020019060010190610453565b505050508152602001600282018054806020026020016040519081016040528092919081815260200182805480156104f057602002820191906000526020600020905b8154815260200190600101908083116104dc575b5050505050815260200160038201805461050990614d99565b80601f016020809104026020016040519081016040528092919081815260200182805461053590614d99565b80156105825780601f1061055757610100808354040283529160200191610582565b820191906000526020600020905b81548152906001019060200180831161056557829003601f168201915b5050505050815260200160048201805461059b90614d99565b80601f01602080910402602001604051908101604052809291908181526020018280546105c790614d99565b80156106145780601f106105e957610100808354040283529160200191610614565b820191906000526020600020905b8154815290600101906020018083116105f757829003601f168201915b5050505050815250509050919050565b60606007805480602002602001604051908101604052809291908181526020016000905b828210156107a857838290600052602060002090600302016040518060600160405290816000820154815260200160018201805461068590614d99565b80601f01602080910402602001604051908101604052809291908181526020018280546106b190614d99565b80156106fe5780601f106106d3576101008083540402835291602001916106fe565b820191906000526020600020905b8154815290600101906020018083116106e157829003601f168201915b5050505050815260200160028201805461071790614d99565b80601f016020809104026020016040519081016040528092919081815260200182805461074390614d99565b80156107905780601f1061076557610100808354040283529160200191610790565b820191906000526020600020905b81548152906001019060200180831161077357829003601f168201915b50505050508152505081526020019060010190610648565b50505050905090565b60606000825167ffffffffffffffff8111156107d0576107cf613f4e565b5b60405190808252806020026020018201604052801561080957816020015b6107f66138fb565b8152602001906001900390816107ee5790505b50905060005b8351811015610c1157600984828151811061082d5761082c614dca565b5b60200260200101518154811061084657610845614dca565b5b90600052602060002090600c020160405180610160016040529081600082015481526020016001820154815260200160028201805461088490614d99565b80601f01602080910402602001604051908101604052809291908181526020018280546108b090614d99565b80156108fd5780601f106108d2576101008083540402835291602001916108fd565b820191906000526020600020905b8154815290600101906020018083116108e057829003601f168201915b5050505050815260200160038201805461091690614d99565b80601f016020809104026020016040519081016040528092919081815260200182805461094290614d99565b801561098f5780601f106109645761010080835404028352916020019161098f565b820191906000526020600020905b81548152906001019060200180831161097257829003601f168201915b505050505081526020016004820180546109a890614d99565b80601f01602080910402602001604051908101604052809291908181526020018280546109d490614d99565b8015610a215780601f106109f657610100808354040283529160200191610a21565b820191906000526020600020905b815481529060010190602001808311610a0457829003601f168201915b50505050508152602001600582018054610a3a90614d99565b80601f0160208091040260200160405190810160405280929190818152602001828054610a6690614d99565b8015610ab35780601f10610a8857610100808354040283529160200191610ab3565b820191906000526020600020905b815481529060010190602001808311610a9657829003601f168201915b505050505081526020016006820160009054906101000a900473ffffffffffffffffffffffffffffffffffffffff1673ffffffffffffffffffffffffffffffffffffffff1673ffffffffffffffffffffffffffffffffffffffff168152602001600782015481526020016008820154815260200160098201548152602001600a820160405180604001604052908160008201548152602001600182018054610b5a90614d99565b80601f0160208091040260200160405190810160405280929190818152602001828054610b8690614d99565b8015610bd35780601f10610ba857610100808354040283529160200191610bd3565b820191906000526020600020905b815481529060010190602001808311610bb657829003601f168201915b50505050508152505081525050828281518110610bf357610bf2614dca565b5b60200260200101819052508080610c0990614e28565b91505061080f565b5080915050919050565b60606008805480602002602001604051908101604052809291908181526020016000905b82821015610d0d578382906000526020600020906002020160405180604001604052908160008201548152602001600182018054610c7c90614d99565b80601f0160208091040260200160405190810160405280929190818152602001828054610ca890614d99565b8015610cf55780601f10610cca57610100808354040283529160200191610cf5565b820191906000526020600020905b815481529060010190602001808311610cd857829003601f168201915b50505050508152505081526020019060010190610c3f565b50505050905090565b60606000825167ffffffffffffffff811115610d3557610d34613f4e565b5b604051908082528060200260200182016040528015610d6e57816020015b610d5b6138fb565b815260200190600190039081610d535790505b50905060005b8351811015611176576009848281518110610d9257610d91614dca565b5b602002602001015181548110610dab57610daa614dca565b5b90600052602060002090600c0201604051806101600160405290816000820154815260200160018201548152602001600282018054610de990614d99565b80601f0160208091040260200160405190810160405280929190818152602001828054610e1590614d99565b8015610e625780601f10610e3757610100808354040283529160200191610e62565b820191906000526020600020905b815481529060010190602001808311610e4557829003601f168201915b50505050508152602001600382018054610e7b90614d99565b80601f0160208091040260200160405190810160405280929190818152602001828054610ea790614d99565b8015610ef45780601f10610ec957610100808354040283529160200191610ef4565b820191906000526020600020905b815481529060010190602001808311610ed757829003601f168201915b50505050508152602001600482018054610f0d90614d99565b80601f0160208091040260200160405190810160405280929190818152602001828054610f3990614d99565b8015610f865780601f10610f5b57610100808354040283529160200191610f86565b820191906000526020600020905b815481529060010190602001808311610f6957829003601f168201915b50505050508152602001600582018054610f9f90614d99565b80601f0160208091040260200160405190810160405280929190818152602001828054610fcb90614d99565b80156110185780601f10610fed57610100808354040283529160200191611018565b820191906000526020600020905b815481529060010190602001808311610ffb57829003601f168201915b505050505081526020016006820160009054906101000a900473ffffffffffffffffffffffffffffffffffffffff1673ffffffffffffffffffffffffffffffffffffffff1673ffffffffffffffffffffffffffffffffffffffff168152602001600782015481526020016008820154815260200160098201548152602001600a8201604051806040016040529081600082015481526020016001820180546110bf90614d99565b80601f01602080910402602001604051908101604052809291908181526020018280546110eb90614d99565b80156111385780601f1061110d57610100808354040283529160200191611138565b820191906000526020600020905b81548152906001019060200180831161111b57829003601f168201915b5050505050815250508152505082828151811061115857611157614dca565b5b6020026020010181905250808061116e90614e28565b915050610d74565b5080915050919050565b606060046000838152602001908152602001600020805480602002602001604051908101604052809291908181526020016000905b8282101561156857838290600052602060002090600c02016040518061014001604052908160008201548152602001600182015481526020016002820180546111fd90614d99565b80601f016020809104026020016040519081016040528092919081815260200182805461122990614d99565b80156112765780601f1061124b57610100808354040283529160200191611276565b820191906000526020600020905b81548152906001019060200180831161125957829003601f168201915b5050505050815260200160038201805461128f90614d99565b80601f01602080910402602001604051908101604052809291908181526020018280546112bb90614d99565b80156113085780601f106112dd57610100808354040283529160200191611308565b820191906000526020600020905b8154815290600101906020018083116112eb57829003601f168201915b505050505081526020016004820154815260200160058201805461132b90614d99565b80601f016020809104026020016040519081016040528092919081815260200182805461135790614d99565b80156113a45780601f10611379576101008083540402835291602001916113a4565b820191906000526020600020905b81548152906001019060200180831161138757829003601f168201915b5050505050815260200160068201604051806060016040529081600082015481526020016001820180546113d790614d99565b80601f016020809104026020016040519081016040528092919081815260200182805461140390614d99565b80156114505780601f1061142557610100808354040283529160200191611450565b820191906000526020600020905b81548152906001019060200180831161143357829003601f168201915b5050505050815260200160028201805461146990614d99565b80601f016020809104026020016040519081016040528092919081815260200182805461149590614d99565b80156114e25780601f106114b7576101008083540402835291602001916114e2565b820191906000526020600020905b8154815290600101906020018083116114c557829003601f168201915b50505050508152505081526020016009820160009054906101000a900473ffffffffffffffffffffffffffffffffffffffff1673ffffffffffffffffffffffffffffffffffffffff1673ffffffffffffffffffffffffffffffffffffffff168152602001600a8201548152602001600b82015481525050815260200190600101906111b5565b505050509050919050565b6000600160009054906101000a900473ffffffffffffffffffffffffffffffffffffffff1673ffffffffffffffffffffffffffffffffffffffff1663a1970b6560066040518263ffffffff1660e01b81526004016115d19190614eab565b600060405180830381865afa1580156115ee573d6000803e3d6000fd5b505050506040513d6000823e3d601f19601f8201168201806040525081019061161791906150d3565b90508060200151841115611660576040517f08c379a00000000000000000000000000000000000000000000000000000000081526004016116579061518e565b60405180910390fd5b8060200151600360009054906101000a900473ffffffffffffffffffffffffffffffffffffffff1673ffffffffffffffffffffffffffffffffffffffff1663dd62ed3e33306040518363ffffffff1660e01b81526004016116c29291906151bd565b602060405180830381865afa1580156116df573d6000803e3d6000fd5b505050506040513d601f19601f8201168201806040525081019061170391906151e6565b1015611744576040517f08c379a000000000000000000000000000000000000000000000000000000000815260040161173b90615285565b60405180910390fd5b600960405180610160016040528060098054905081526020018b81526020018a81526020018981526020018881526020018781526020013373ffffffffffffffffffffffffffffffffffffffff168152602001868152602001858152602001428152602001600885815481106117bd576117bc614dca565b5b9060005260206000209060020201604051806040016040529081600082015481526020016001820180546117f090614d99565b80601f016020809104026020016040519081016040528092919081815260200182805461181c90614d99565b80156118695780601f1061183e57610100808354040283529160200191611869565b820191906000526020600020905b81548152906001019060200180831161184c57829003601f168201915b50505050508152505081525090806001815401808255809150506001900390600052602060002090600c0201600090919091909150600082015181600001556020820151816001015560408201518160020190816118c79190615447565b5060608201518160030190816118dd9190615447565b5060808201518160040190816118f39190615447565b5060a08201518160050190816119099190615447565b5060c08201518160060160006101000a81548173ffffffffffffffffffffffffffffffffffffffff021916908373ffffffffffffffffffffffffffffffffffffffff16021790555060e082015181600701556101008201518160080155610120820151816009015561014082015181600a0160008201518160000155602082015181600101908161199a9190615447565b505050505081833373ffffffffffffffffffffffffffffffffffffffff167f7ab7341da1636789b2c95a5031a593be10f87f18ad3fbabb054a85f42a1b853b60016009805490506119eb9190615519565b8c8c8c8b42604051611a029695949392919061554d565b60405180910390a4600a60003373ffffffffffffffffffffffffffffffffffffffff1673ffffffffffffffffffffffffffffffffffffffff1681526020019081526020016000206000016001600980549050611a5e9190615519565b90806001815401808255809150506001900390600052602060002001600090919091909150556000600360009054906101000a900473ffffffffffffffffffffffffffffffffffffffff1673ffffffffffffffffffffffffffffffffffffffff166323b872dd333085602001516040518463ffffffff1660e01b8152600401611ae9939291906155c3565b6020604051808303816000875af1158015611b08573d6000803e3d6000fd5b505050506040513d601f19601f82011682018060405250810190611b2c9190615626565b90506001151581151514611b75576040517f08c379a0000000000000000000000000000000000000000000000000000000008152600401611b6c9061569f565b60405180910390fd5b50505050505050505050565b60078181548110611b9157600080fd5b9060005260206000209060030201600091509050806000015490806001018054611bba90614d99565b80601f0160208091040260200160405190810160405280929190818152602001828054611be690614d99565b8015611c335780601f10611c0857610100808354040283529160200191611c33565b820191906000526020600020905b815481529060010190602001808311611c1657829003601f168201915b505050505090806002018054611c4890614d99565b80601f0160208091040260200160405190810160405280929190818152602001828054611c7490614d99565b8015611cc15780601f10611c9657610100808354040283529160200191611cc1565b820191906000526020600020905b815481529060010190602001808311611ca457829003601f168201915b5050505050905083565b60606000825167ffffffffffffffff811115611cea57611ce9613f4e565b5b604051908082528060200260200182016040528015611d2357816020015b611d10613971565b815260200190600190039081611d085790505b50905060005b835181101561215e5760046000858381518110611d4957611d48614dca565b5b6020026020010151600001518152602001908152602001600020848281518110611d7657611d75614dca565b5b60200260200101516020015181548110611d9357611d92614dca565b5b90600052602060002090600c0201604051806101400160405290816000820154815260200160018201548152602001600282018054611dd190614d99565b80601f0160208091040260200160405190810160405280929190818152602001828054611dfd90614d99565b8015611e4a5780601f10611e1f57610100808354040283529160200191611e4a565b820191906000526020600020905b815481529060010190602001808311611e2d57829003601f168201915b50505050508152602001600382018054611e6390614d99565b80601f0160208091040260200160405190810160405280929190818152602001828054611e8f90614d99565b8015611edc5780601f10611eb157610100808354040283529160200191611edc565b820191906000526020600020905b815481529060010190602001808311611ebf57829003601f168201915b5050505050815260200160048201548152602001600582018054611eff90614d99565b80601f0160208091040260200160405190810160405280929190818152602001828054611f2b90614d99565b8015611f785780601f10611f4d57610100808354040283529160200191611f78565b820191906000526020600020905b815481529060010190602001808311611f5b57829003601f168201915b505050505081526020016006820160405180606001604052908160008201548152602001600182018054611fab90614d99565b80601f0160208091040260200160405190810160405280929190818152602001828054611fd790614d99565b80156120245780601f10611ff957610100808354040283529160200191612024565b820191906000526020600020905b81548152906001019060200180831161200757829003601f168201915b5050505050815260200160028201805461203d90614d99565b80601f016020809104026020016040519081016040528092919081815260200182805461206990614d99565b80156120b65780601f1061208b576101008083540402835291602001916120b6565b820191906000526020600020905b81548152906001019060200180831161209957829003601f168201915b50505050508152505081526020016009820160009054906101000a900473ffffffffffffffffffffffffffffffffffffffff1673ffffffffffffffffffffffffffffffffffffffff1673ffffffffffffffffffffffffffffffffffffffff168152602001600a8201548152602001600b820154815250508282815181106121405761213f614dca565b5b6020026020010181905250808061215690614e28565b915050611d29565b5080915050919050565b81600015156005600083815260200190815260200160002060003373ffffffffffffffffffffffffffffffffffffffff1673ffffffffffffffffffffffffffffffffffffffff16815260200190815260200160002060009054906101000a900460ff1615151461220d576040517f08c379a000000000000000000000000000000000000000000000000000000000815260040161220490615731565b60405180910390fd5b60016005600083815260200190815260200160002060003373ffffffffffffffffffffffffffffffffffffffff1673ffffffffffffffffffffffffffffffffffffffff16815260200190815260200160002060006101000a81548160ff0219169083151502179055506009838154811061228a57612289614dca565b5b90600052602060002090600c0201600801544210156122de576040517f08c379a00000000000000000000000000000000000000000000000000000000081526004016122d59061579d565b60405180910390fd5b6000600160009054906101000a900473ffffffffffffffffffffffffffffffffffffffff1673ffffffffffffffffffffffffffffffffffffffff1663a1970b65600a6040518263ffffffff1660e01b815260040161233c91906157f8565b600060405180830381865afa158015612359573d6000803e3d6000fd5b505050506040513d6000823e3d601f19601f8201168201806040525081019061238291906150d3565b90506000600160009054906101000a900473ffffffffffffffffffffffffffffffffffffffff1673ffffffffffffffffffffffffffffffffffffffff1663a1970b65600b6040518263ffffffff1660e01b81526004016123e2919061584e565b600060405180830381865afa1580156123ff573d6000803e3d6000fd5b505050506040513d6000823e3d601f19601f8201168201806040525081019061242891906150d3565b90508160400151600a61243b919061599c565b6103e8603c80856020015161245091906159e7565b61245a91906159e7565b61246491906159e7565b61246e9190615a29565b6009868154811061248257612481614dca565b5b90600052602060002090600c02016008015461249e9190615a29565b4211156124e0576040517f08c379a00000000000000000000000000000000000000000000000000000000081526004016124d790615aa9565b60405180910390fd5b60006004600087815260200190815260200160002090506001151561250986846020015161381d565b15151461254b576040517f08c379a000000000000000000000000000000000000000000000000000000000815260040161254290615b15565b60405180910390fd5b60005b81805490508110156125c25785818151811061256d5761256c614dca565b5b602002602001015182828154811061258857612587614dca565b5b90600052602060002090600c0201600b0160008282546125a89190615a29565b9250508190555080806125ba90614e28565b91505061254e565b503373ffffffffffffffffffffffffffffffffffffffff167fa2a7a3f3f0f270edf879cd218d16eb2e3f0f28814a97c61195acf7b14be81771874260405161260b929190615b35565b60405180910390a2600a60003373ffffffffffffffffffffffffffffffffffffffff1673ffffffffffffffffffffffffffffffffffffffff168152602001908152602001600020600201869080600181540180825580915050600190039060005260206000200160009091909190915055846006600088815260200190815260200160002060003373ffffffffffffffffffffffffffffffffffffffff1673ffffffffffffffffffffffffffffffffffffffff16815260200190815260200160002090805190602001906126e09291906139e0565b50505050505050565b85600015156005600083815260200190815260200160002060003373ffffffffffffffffffffffffffffffffffffffff1673ffffffffffffffffffffffffffffffffffffffff16815260200190815260200160002060009054906101000a900460ff1615151461278e576040517f08c379a000000000000000000000000000000000000000000000000000000000815260040161278590615731565b60405180910390fd5b60016005600083815260200190815260200160002060003373ffffffffffffffffffffffffffffffffffffffff1673ffffffffffffffffffffffffffffffffffffffff16815260200190815260200160002060006101000a81548160ff0219169083151502179055506000600160009054906101000a900473ffffffffffffffffffffffffffffffffffffffff1673ffffffffffffffffffffffffffffffffffffffff1663a1970b6560096040518263ffffffff1660e01b81526004016128559190615b99565b600060405180830381865afa158015612872573d6000803e3d6000fd5b505050506040513d6000823e3d601f19601f8201168201806040525081019061289b91906150d3565b90508060200151600360009054906101000a900473ffffffffffffffffffffffffffffffffffffffff1673ffffffffffffffffffffffffffffffffffffffff1663dd62ed3e33306040518363ffffffff1660e01b81526004016128ff9291906151bd565b602060405180830381865afa15801561291c573d6000803e3d6000fd5b505050506040513d601f19601f8201168201806040525081019061294091906151e6565b1015612981576040517f08c379a000000000000000000000000000000000000000000000000000000000815260040161297890615285565b60405180910390fd5b426009898154811061299657612995614dca565b5b90600052602060002090600c020160080154116129e8576040517f08c379a00000000000000000000000000000000000000000000000000000000081526004016129df90615c00565b60405180910390fd5b806020015160098981548110612a0157612a00614dca565b5b90600052602060002090600c02016007016000828254612a219190615a29565b9250508190555060046000898152602001908152602001600020604051806101400160405280600460008c81526020019081526020016000208054905081526020018a815260200189815260200188815260200187815260200186815260200160078681548110612a9557612a94614dca565b5b906000526020600020906003020160405180606001604052908160008201548152602001600182018054612ac890614d99565b80601f0160208091040260200160405190810160405280929190818152602001828054612af490614d99565b8015612b415780601f10612b1657610100808354040283529160200191612b41565b820191906000526020600020905b815481529060010190602001808311612b2457829003601f168201915b50505050508152602001600282018054612b5a90614d99565b80601f0160208091040260200160405190810160405280929190818152602001828054612b8690614d99565b8015612bd35780601f10612ba857610100808354040283529160200191612bd3565b820191906000526020600020905b815481529060010190602001808311612bb657829003601f168201915b50505050508152505081526020013373ffffffffffffffffffffffffffffffffffffffff168152602001428152602001600081525090806001815401808255809150506001900390600052602060002090600c020160009091909190915060008201518160000155602082015181600101556040820151816002019081612c5a9190615447565b506060820151816003019081612c709190615447565b506080820151816004015560a0820151816005019081612c909190615447565b5060c082015181600601600082015181600001556020820151816001019081612cb99190615447565b506040820151816002019081612ccf9190615447565b50505060e08201518160090160006101000a81548173ffffffffffffffffffffffffffffffffffffffff021916908373ffffffffffffffffffffffffffffffffffffffff16021790555061010082015181600a015561012082015181600b01555050823373ffffffffffffffffffffffffffffffffffffffff167f32af0e748fb39083643271e2d6f08708a9b5624a3f71bdeb409a3fdfb12fe5508a6001600460008e815260200190815260200160002080549050612d8e9190615519565b8b8b42604051612da2959493929190615c20565b60405180910390a3600a60003373ffffffffffffffffffffffffffffffffffffffff1673ffffffffffffffffffffffffffffffffffffffff16815260200190815260200160002060010160405180604001604052808a81526020016001600460008d815260200190815260200160002080549050612e209190615519565b8152509080600181540180825580915050600190039060005260206000209060020201600090919091909150600082015181600001556020820151816001015550506000600360009054906101000a900473ffffffffffffffffffffffffffffffffffffffff1673ffffffffffffffffffffffffffffffffffffffff166323b872dd333085602001516040518463ffffffff1660e01b8152600401612ec7939291906155c3565b6020604051808303816000875af1158015612ee6573d6000803e3d6000fd5b505050506040513d601f19601f82011682018060405250810190612f0a9190615626565b90506001151581151514612f53576040517f08c379a0000000000000000000000000000000000000000000000000000000008152600401612f4a9061569f565b60405180910390fd5b505050505050505050565b60006060600080600160009054906101000a900473ffffffffffffffffffffffffffffffffffffffff1673ffffffffffffffffffffffffffffffffffffffff1663a1970b65600a6040518263ffffffff1660e01b8152600401612fc191906157f8565b600060405180830381865afa158015612fde573d6000803e3d6000fd5b505050506040513d6000823e3d601f19601f8201168201806040525081019061300791906150d3565b90506000600160009054906101000a900473ffffffffffffffffffffffffffffffffffffffff1673ffffffffffffffffffffffffffffffffffffffff1663a1970b65600b6040518263ffffffff1660e01b8152600401613067919061584e565b600060405180830381865afa158015613084573d6000803e3d6000fd5b505050506040513d6000823e3d601f19601f820116820180604052508101906130ad91906150d3565b905060006006600089815260200190815260200160002060008873ffffffffffffffffffffffffffffffffffffffff1673ffffffffffffffffffffffffffffffffffffffff16815260200190815260200160002080548060200260200160405190810160405280929190818152602001828054801561314b57602002820191906000526020600020905b815481526020019060010190808311613137575b505050505090506000801515600560008b815260200190815260200160002060008a73ffffffffffffffffffffffffffffffffffffffff1673ffffffffffffffffffffffffffffffffffffffff16815260200190815260200160002060009054906101000a900460ff1615151480156131e95750600989815481106131d3576131d2614dca565b5b90600052602060002090600c0201600801544210155b801561325b57508360400151600a613201919061599c565b603c80866020015161321391906159e7565b61321d91906159e7565b6132279190615cb0565b60098a8154811061323b5761323a614dca565b5b90600052602060002090600c0201600801546132579190615a29565b4211155b905082602001518282965096509650505050509250925092565b6000600160009054906101000a900473ffffffffffffffffffffffffffffffffffffffff1673ffffffffffffffffffffffffffffffffffffffff1663a1970b65600a6040518263ffffffff1660e01b81526004016132d391906157f8565b600060405180830381865afa1580156132f0573d6000803e3d6000fd5b505050506040513d6000823e3d601f19601f8201168201806040525081019061331991906150d3565b90508060400151600a61332c919061599c565b6103e8603c80846020015161334191906159e7565b61334b91906159e7565b61335591906159e7565b61335f9190615cb0565b6009838154811061337357613372614dca565b5b90600052602060002090600c02016008015461338f9190615a29565b42116133d0576040517f08c379a00000000000000000000000000000000000000000000000000000000081526004016133c790615d2d565b60405180910390fd5b60006004600084815260200190815260200160002090506000818054905090506000805b828110156134415783818154811061340f5761340e614dca565b5b90600052602060002090600c0201600b01548261342c9190615a29565b9150808061343990614e28565b9150506133f4565b50600081036135a5576000600360009054906101000a900473ffffffffffffffffffffffffffffffffffffffff1673ffffffffffffffffffffffffffffffffffffffff1663a9059cbb6009888154811061349e5761349d614dca565b5b90600052602060002090600c020160060160009054906101000a900473ffffffffffffffffffffffffffffffffffffffff16600989815481106134e4576134e3614dca565b5b90600052602060002090600c0201600701546040518363ffffffff1660e01b8152600401613513929190615d4d565b6020604051808303816000875af1158015613532573d6000803e3d6000fd5b505050506040513d601f19601f820116820180604052508101906135569190615626565b9050600115158115151461359f576040517f08c379a00000000000000000000000000000000000000000000000000000000081526004016135969061569f565b60405180910390fd5b5061375a565b60005b82811015613758576000828583815481106135c6576135c5614dca565b5b90600052602060002090600c0201600b0154600989815481106135ec576135eb614dca565b5b90600052602060002090600c02016007015461360891906159e7565b6136129190615cb0565b90506000600360009054906101000a900473ffffffffffffffffffffffffffffffffffffffff1673ffffffffffffffffffffffffffffffffffffffff1663a9059cbb87858154811061366757613666614dca565b5b90600052602060002090600c020160090160009054906101000a900473ffffffffffffffffffffffffffffffffffffffff16846040518363ffffffff1660e01b81526004016136b7929190615d4d565b6020604051808303816000875af11580156136d6573d6000803e3d6000fd5b505050506040513d601f19601f820116820180604052508101906136fa9190615626565b90506001151581151514613743576040517f08c379a000000000000000000000000000000000000000000000000000000000815260040161373a9061569f565b60405180910390fd5b5050808061375090614e28565b9150506135a8565b505b5050505050565b6008818154811061377157600080fd5b906000526020600020906002020160009150905080600001549080600101805461379a90614d99565b80601f01602080910402602001604051908101604052809291908181526020018280546137c690614d99565b80156138135780601f106137e857610100808354040283529160200191613813565b820191906000526020600020905b8154815290600101906020018083116137f657829003601f168201915b5050505050905082565b6000806000905060005b8451811015613898576000600190505b85828151811061384a57613849614dca565b5b6020026020010151811161388457808161386491906159e7565b8361386f9190615a29565b9250808061387c90614e28565b915050613837565b50808061389090614e28565b915050613827565b508281111591505092915050565b600360009054906101000a900473ffffffffffffffffffffffffffffffffffffffff1681565b6040518060a0016040528060608152602001606081526020016060815260200160608152602001606081525090565b604051806101600160405280600081526020016000815260200160608152602001606081526020016060815260200160608152602001600073ffffffffffffffffffffffffffffffffffffffff16815260200160008152602001600081526020016000815260200161396b613a2d565b81525090565b6040518061014001604052806000815260200160008152602001606081526020016060815260200160008152602001606081526020016139af613a47565b8152602001600073ffffffffffffffffffffffffffffffffffffffff16815260200160008152602001600081525090565b828054828255906000526020600020908101928215613a1c579160200282015b82811115613a1b578251825591602001919060010190613a00565b5b509050613a299190613a68565b5090565b604051806040016040528060008152602001606081525090565b60405180606001604052806000815260200160608152602001606081525090565b5b80821115613a81576000816000905550600101613a69565b5090565b6000604051905090565b600080fd5b600080fd5b600073ffffffffffffffffffffffffffffffffffffffff82169050919050565b6000613ac482613a99565b9050919050565b613ad481613ab9565b8114613adf57600080fd5b50565b600081359050613af181613acb565b92915050565b600060208284031215613b0d57613b0c613a8f565b5b6000613b1b84828501613ae2565b91505092915050565b600081519050919050565b600082825260208201905092915050565b6000819050602082019050919050565b6000819050919050565b613b6381613b50565b82525050565b6000613b758383613b5a565b60208301905092915050565b6000602082019050919050565b6000613b9982613b24565b613ba38185613b2f565b9350613bae83613b40565b8060005b83811015613bdf578151613bc68882613b69565b9750613bd183613b81565b925050600181019050613bb2565b5085935050505092915050565b600081519050919050565b600082825260208201905092915050565b6000819050602082019050919050565b604082016000820151613c2e6000850182613b5a565b506020820151613c416020850182613b5a565b50505050565b6000613c538383613c18565b60408301905092915050565b6000602082019050919050565b6000613c7782613bec565b613c818185613bf7565b9350613c8c83613c08565b8060005b83811015613cbd578151613ca48882613c47565b9750613caf83613c5f565b925050600181019050613c90565b5085935050505092915050565b600081519050919050565b600082825260208201905092915050565b60005b83811015613d04578082015181840152602081019050613ce9565b60008484015250505050565b6000601f19601f8301169050919050565b6000613d2c82613cca565b613d368185613cd5565b9350613d46818560208601613ce6565b613d4f81613d10565b840191505092915050565b600060a0830160008301518482036000860152613d778282613b8e565b91505060208301518482036020860152613d918282613c6c565b91505060408301518482036040860152613dab8282613b8e565b91505060608301518482036060860152613dc58282613d21565b91505060808301518482036080860152613ddf8282613d21565b9150508091505092915050565b60006020820190508181036000830152613e068184613d5a565b905092915050565b600081519050919050565b600082825260208201905092915050565b6000819050602082019050919050565b6000606083016000830151613e526000860182613b5a565b5060208301518482036020860152613e6a8282613d21565b91505060408301518482036040860152613e848282613d21565b9150508091505092915050565b6000613e9d8383613e3a565b905092915050565b6000602082019050919050565b6000613ebd82613e0e565b613ec78185613e19565b935083602082028501613ed985613e2a565b8060005b85811015613f155784840389528151613ef68582613e91565b9450613f0183613ea5565b925060208a01995050600181019050613edd565b50829750879550505050505092915050565b60006020820190508181036000830152613f418184613eb2565b905092915050565b600080fd5b7f4e487b7100000000000000000000000000000000000000000000000000000000600052604160045260246000fd5b613f8682613d10565b810181811067ffffffffffffffff82111715613fa557613fa4613f4e565b5b80604052505050565b6000613fb8613a85565b9050613fc48282613f7d565b919050565b600067ffffffffffffffff821115613fe457613fe3613f4e565b5b602082029050602081019050919050565b600080fd5b61400381613b50565b811461400e57600080fd5b50565b60008135905061402081613ffa565b92915050565b600061403961403484613fc9565b613fae565b9050808382526020820190506020840283018581111561405c5761405b613ff5565b5b835b8181101561408557806140718882614011565b84526020840193505060208101905061405e565b5050509392505050565b600082601f8301126140a4576140a3613f49565b5b81356140b4848260208601614026565b91505092915050565b6000602082840312156140d3576140d2613a8f565b5b600082013567ffffffffffffffff8111156140f1576140f0613a94565b5b6140fd8482850161408f565b91505092915050565b600081519050919050565b600082825260208201905092915050565b6000819050602082019050919050565b61413b81613ab9565b82525050565b60006040830160008301516141596000860182613b5a565b50602083015184820360208601526141718282613d21565b9150508091505092915050565b6000610160830160008301516141976000860182613b5a565b5060208301516141aa6020860182613b5a565b50604083015184820360408601526141c28282613d21565b915050606083015184820360608601526141dc8282613d21565b915050608083015184820360808601526141f68282613d21565b91505060a083015184820360a08601526142108282613d21565b91505060c083015161422560c0860182614132565b5060e083015161423860e0860182613b5a565b5061010083015161424d610100860182613b5a565b50610120830151614262610120860182613b5a565b5061014083015184820361014086015261427c8282614141565b9150508091505092915050565b6000614295838361417e565b905092915050565b6000602082019050919050565b60006142b582614106565b6142bf8185614111565b9350836020820285016142d185614122565b8060005b8581101561430d57848403895281516142ee8582614289565b94506142f98361429d565b925060208a019950506001810190506142d5565b50829750879550505050505092915050565b6000602082019050818103600083015261433981846142aa565b905092915050565b600081519050919050565b600082825260208201905092915050565b6000819050602082019050919050565b60006143798383614141565b905092915050565b6000602082019050919050565b600061439982614341565b6143a3818561434c565b9350836020820285016143b58561435d565b8060005b858110156143f157848403895281516143d2858261436d565b94506143dd83614381565b925060208a019950506001810190506143b9565b50829750879550505050505092915050565b6000602082019050818103600083015261441d818461438e565b905092915050565b60006020828403121561443b5761443a613a8f565b5b600061444984828501614011565b91505092915050565b600081519050919050565b600082825260208201905092915050565b6000819050602082019050919050565b6000610140830160008301516144976000860182613b5a565b5060208301516144aa6020860182613b5a565b50604083015184820360408601526144c28282613d21565b915050606083015184820360608601526144dc8282613d21565b91505060808301516144f16080860182613b5a565b5060a083015184820360a08601526145098282613d21565b91505060c083015184820360c08601526145238282613e3a565b91505060e083015161453860e0860182614132565b5061010083015161454d610100860182613b5a565b50610120830151614562610120860182613b5a565b508091505092915050565b6000614579838361447e565b905092915050565b6000602082019050919050565b600061459982614452565b6145a3818561445d565b9350836020820285016145b58561446e565b8060005b858110156145f157848403895281516145d2858261456d565b94506145dd83614581565b925060208a019950506001810190506145b9565b50829750879550505050505092915050565b6000602082019050818103600083015261461d818461458e565b905092915050565b600080fd5b600067ffffffffffffffff82111561464557614644613f4e565b5b61464e82613d10565b9050602081019050919050565b82818337600083830152505050565b600061467d6146788461462a565b613fae565b90508281526020810184848401111561469957614698614625565b5b6146a484828561465b565b509392505050565b600082601f8301126146c1576146c0613f49565b5b81356146d184826020860161466a565b91505092915050565b600080600080600080600080610100898b0312156146fb576146fa613a8f565b5b60006147098b828c01614011565b985050602089013567ffffffffffffffff81111561472a57614729613a94565b5b6147368b828c016146ac565b975050604089013567ffffffffffffffff81111561475757614756613a94565b5b6147638b828c016146ac565b965050606089013567ffffffffffffffff81111561478457614783613a94565b5b6147908b828c016146ac565b955050608089013567ffffffffffffffff8111156147b1576147b0613a94565b5b6147bd8b828c016146ac565b94505060a06147ce8b828c01614011565b93505060c06147df8b828c01614011565b92505060e06147f08b828c01614011565b9150509295985092959890939650565b61480981613b50565b82525050565b600082825260208201905092915050565b600061482b82613cca565b614835818561480f565b9350614845818560208601613ce6565b61484e81613d10565b840191505092915050565b600060608201905061486e6000830186614800565b81810360208301526148808185614820565b905081810360408301526148948184614820565b9050949350505050565b600067ffffffffffffffff8211156148b9576148b8613f4e565b5b602082029050602081019050919050565b600080fd5b600080fd5b6000604082840312156148ea576148e96148ca565b5b6148f46040613fae565b9050600061490484828501614011565b600083015250602061491884828501614011565b60208301525092915050565b60006149376149328461489e565b613fae565b9050808382526020820190506040840283018581111561495a57614959613ff5565b5b835b81811015614983578061496f88826148d4565b84526020840193505060408101905061495c565b5050509392505050565b600082601f8301126149a2576149a1613f49565b5b81356149b2848260208601614924565b91505092915050565b6000602082840312156149d1576149d0613a8f565b5b600082013567ffffffffffffffff8111156149ef576149ee613a94565b5b6149fb8482850161498d565b91505092915050565b60008060408385031215614a1b57614a1a613a8f565b5b6000614a2985828601614011565b925050602083013567ffffffffffffffff811115614a4a57614a49613a94565b5b614a568582860161408f565b9150509250929050565b60008060008060008060c08789031215614a7d57614a7c613a8f565b5b6000614a8b89828a01614011565b965050602087013567ffffffffffffffff811115614aac57614aab613a94565b5b614ab889828a016146ac565b955050604087013567ffffffffffffffff811115614ad957614ad8613a94565b5b614ae589828a016146ac565b9450506060614af689828a01614011565b935050608087013567ffffffffffffffff811115614b1757614b16613a94565b5b614b2389828a016146ac565b92505060a0614b3489828a01614011565b9150509295509295509295565b60008060408385031215614b5857614b57613a8f565b5b6000614b6685828601614011565b9250506020614b7785828601613ae2565b9150509250929050565b600082825260208201905092915050565b6000614b9d82613b24565b614ba78185614b81565b9350614bb283613b40565b8060005b83811015614be3578151614bca8882613b69565b9750614bd583613b81565b925050600181019050614bb6565b5085935050505092915050565b60008115159050919050565b614c0581614bf0565b82525050565b6000606082019050614c206000830186614800565b8181036020830152614c328185614b92565b9050614c416040830184614bfc565b949350505050565b6000604082019050614c5e6000830185614800565b8181036020830152614c708184614820565b90509392505050565b60008060408385031215614c9057614c8f613a8f565b5b600083013567ffffffffffffffff811115614cae57614cad613a94565b5b614cba8582860161408f565b9250506020614ccb85828601614011565b9150509250929050565b6000602082019050614cea6000830184614bfc565b92915050565b6000819050919050565b6000614d15614d10614d0b84613a99565b614cf0565b613a99565b9050919050565b6000614d2782614cfa565b9050919050565b6000614d3982614d1c565b9050919050565b614d4981614d2e565b82525050565b6000602082019050614d646000830184614d40565b92915050565b7f4e487b7100000000000000000000000000000000000000000000000000000000600052602260045260246000fd5b60006002820490506001821680614db157607f821691505b602082108103614dc457614dc3614d6a565b5b50919050565b7f4e487b7100000000000000000000000000000000000000000000000000000000600052603260045260246000fd5b7f4e487b7100000000000000000000000000000000000000000000000000000000600052601160045260246000fd5b6000614e3382613b50565b91507fffffffffffffffffffffffffffffffffffffffffffffffffffffffffffffffff8203614e6557614e64614df9565b5b600182019050919050565b6000819050919050565b6000614e95614e90614e8b84614e70565b614cf0565b613b50565b9050919050565b614ea581614e7a565b82525050565b6000602082019050614ec06000830184614e9c565b92915050565b600081519050614ed581613ffa565b92915050565b6000614eee614ee98461462a565b613fae565b905082815260208101848484011115614f0a57614f09614625565b5b614f15848285613ce6565b509392505050565b600082601f830112614f3257614f31613f49565b5b8151614f42848260208601614edb565b91505092915050565b60006101208284031215614f6257614f616148ca565b5b614f6d610120613fae565b90506000614f7d84828501614ec6565b6000830152506020614f9184828501614ec6565b6020830152506040614fa584828501614ec6565b604083015250606082015167ffffffffffffffff811115614fc957614fc86148cf565b5b614fd584828501614f1d565b606083015250608082015167ffffffffffffffff811115614ff957614ff86148cf565b5b61500584828501614f1d565b60808301525060a082015167ffffffffffffffff811115615029576150286148cf565b5b61503584828501614f1d565b60a08301525060c082015167ffffffffffffffff811115615059576150586148cf565b5b61506584828501614f1d565b60c08301525060e082015167ffffffffffffffff811115615089576150886148cf565b5b61509584828501614f1d565b60e08301525061010082015167ffffffffffffffff8111156150ba576150b96148cf565b5b6150c684828501614f1d565b6101008301525092915050565b6000602082840312156150e9576150e8613a8f565b5b600082015167ffffffffffffffff81111561510757615106613a94565b5b61511384828501614f4b565b91505092915050565b7f546865207265776172642069732067726561746572207468616e20746865206d60008201527f6178696d756d2076616c75652e00000000000000000000000000000000000000602082015250565b6000615178602d8361480f565b91506151838261511c565b604082019050919050565b600060208201905081810360008301526151a78161516b565b9050919050565b6151b781613ab9565b82525050565b60006040820190506151d260008301856151ae565b6151df60208301846151ae565b9392505050565b6000602082840312156151fc576151fb613a8f565b5b600061520a84828501614ec6565b91505092915050565b7f4e6f7420656e6f75676820746f6b656e7320746f20686f6c6420616e20656c6560008201527f6374696f6e000000000000000000000000000000000000000000000000000000602082015250565b600061526f60258361480f565b915061527a82615213565b604082019050919050565b6000602082019050818103600083015261529e81615262565b9050919050565b60008190508160005260206000209050919050565b60006020601f8301049050919050565b600082821b905092915050565b6000600883026153077fffffffffffffffffffffffffffffffffffffffffffffffffffffffffffffffff826152ca565b61531186836152ca565b95508019841693508086168417925050509392505050565b600061534461533f61533a84613b50565b614cf0565b613b50565b9050919050565b6000819050919050565b61535e83615329565b61537261536a8261534b565b8484546152d7565b825550505050565b600090565b61538761537a565b615392818484615355565b505050565b5b818110156153b6576153ab60008261537f565b600181019050615398565b5050565b601f8211156153fb576153cc816152a5565b6153d5846152ba565b810160208510156153e4578190505b6153f86153f0856152ba565b830182615397565b50505b505050565b600082821c905092915050565b600061541e60001984600802615400565b1980831691505092915050565b6000615437838361540d565b9150826002028217905092915050565b61545082613cca565b67ffffffffffffffff81111561546957615468613f4e565b5b6154738254614d99565b61547e8282856153ba565b600060209050601f8311600181146154b1576000841561549f578287015190505b6154a9858261542b565b865550615511565b601f1984166154bf866152a5565b60005b828110156154e7578489015182556001820191506020850194506020810190506154c2565b868310156155045784890151615500601f89168261540d565b8355505b6001600288020188555050505b505050505050565b600061552482613b50565b915061552f83613b50565b925082820390508181111561554757615546614df9565b5b92915050565b600060c0820190506155626000830189614800565b81810360208301526155748188614820565b905081810360408301526155888187614820565b9050818103606083015261559c8186614820565b90506155ab6080830185614800565b6155b860a0830184614800565b979650505050505050565b60006060820190506155d860008301866151ae565b6155e560208301856151ae565b6155f26040830184614800565b949350505050565b61560381614bf0565b811461560e57600080fd5b50565b600081519050615620816155fa565b92915050565b60006020828403121561563c5761563b613a8f565b5b600061564a84828501615611565b91505092915050565b7f5472616e73666572206661696c65640000000000000000000000000000000000600082015250565b6000615689600f8361480f565b915061569482615653565b602082019050919050565b600060208201905081810360008301526156b88161567c565b9050919050565b7f4f6e6c79207468652067756573742063616e2063616c6c20746869732066756e60008201527f6374696f6e000000000000000000000000000000000000000000000000000000602082015250565b600061571b60258361480f565b9150615726826156bf565b604082019050919050565b6000602082019050818103600083015261574a8161570e565b9050919050565b7f4265666f72652074686520766f74696e6720706572696f642e00000000000000600082015250565b600061578760198361480f565b915061579282615751565b602082019050919050565b600060208201905081810360008301526157b68161577a565b9050919050565b6000819050919050565b60006157e26157dd6157d8846157bd565b614cf0565b613b50565b9050919050565b6157f2816157c7565b82525050565b600060208201905061580d60008301846157e9565b92915050565b6000819050919050565b600061583861583361582e84615813565b614cf0565b613b50565b9050919050565b6158488161581d565b82525050565b6000602082019050615863600083018461583f565b92915050565b60008160011c9050919050565b6000808291508390505b60018511156158c05780860481111561589c5761589b614df9565b5b60018516156158ab5780820291505b80810290506158b985615869565b9450615880565b94509492505050565b6000826158d95760019050615995565b816158e75760009050615995565b81600181146158fd576002811461590757615936565b6001915050615995565b60ff84111561591957615918614df9565b5b8360020a9150848211156159305761592f614df9565b5b50615995565b5060208310610133831016604e8410600b841016171561596b5782820a90508381111561596657615965614df9565b5b615995565b6159788484846001615876565b9250905081840481111561598f5761598e614df9565b5b81810290505b9392505050565b60006159a782613b50565b91506159b283613b50565b92506159df7fffffffffffffffffffffffffffffffffffffffffffffffffffffffffffffffff84846158c9565b905092915050565b60006159f282613b50565b91506159fd83613b50565b9250828202615a0b81613b50565b91508282048414831517615a2257615a21614df9565b5b5092915050565b6000615a3482613b50565b9150615a3f83613b50565b9250828201905080821115615a5757615a56614df9565b5b92915050565b7f4f7574206f6620746865206576616c756174696f6e20706572696f642e000000600082015250565b6000615a93601d8361480f565b9150615a9e82615a5d565b602082019050919050565b60006020820190508181036000830152615ac281615a86565b9050919050565b7f54686520766f746520697320696e76616c69642e000000000000000000000000600082015250565b6000615aff60148361480f565b9150615b0a82615ac9565b602082019050919050565b60006020820190508181036000830152615b2e81615af2565b9050919050565b6000604082019050615b4a6000830185614800565b615b576020830184614800565b9392505050565b6000819050919050565b6000615b83615b7e615b7984615b5e565b614cf0565b613b50565b9050919050565b615b9381615b68565b82525050565b6000602082019050615bae6000830184615b8a565b92915050565b7f54686520646561646c696e6520686173207061737365642e0000000000000000600082015250565b6000615bea60188361480f565b9150615bf582615bb4565b602082019050919050565b60006020820190508181036000830152615c1981615bdd565b9050919050565b600060a082019050615c356000830188614800565b615c426020830187614800565b8181036040830152615c548186614820565b90508181036060830152615c688185614820565b9050615c776080830184614800565b9695505050505050565b7f4e487b7100000000000000000000000000000000000000000000000000000000600052601260045260246000fd5b6000615cbb82613b50565b9150615cc683613b50565b925082615cd657615cd5615c81565b5b828204905092915050565b7f4576616c756174696f6e20706572696f64206e6f7420657870697265642e0000600082015250565b6000615d17601e8361480f565b9150615d2282615ce1565b602082019050919050565b60006020820190508181036000830152615d4681615d0a565b9050919050565b6000604082019050615d6260008301856151ae565b615d6f6020830184614800565b939250505056fea2646970667358221220067fac41e66b01f9c70dad42adcc25d2b3009c7fc93c2dfd5f1e55b130e4e53c64736f6c63430008120033e8aaa4e3828ae381a8e8a8bce6988ee381a7e3818de381aae38184e3818ce38081e8a8bce68ba0e383bbe6a0b9e68ba0e3818ce381aae38184e3818be99d9ee5b8b8e381abe4b98fe38197e38184e38082e6ada3e7a2bae381aae983a8e58886e381a8e4b88de6ada3e7a2bae381aae983a8e58886e3818ce6b7b7e38198e381a3e381a6e38184e381a6e38081e585a8e4bd93e381a8e38197e381a6e6ada3e7a2bae680a7e3818ce6aca0e5a682e38197e381a6e38184e3828be38082e585a8e381a6e38081e38282e38197e3818fe381afe6a0b9e5b9b9e983a8e58886e381abe4ba8be5ae9fe381aee8aaa4e3828ae3818ce38182e3828ae38081e4ba8be5ae9fe381a7e381aae38184e381a8e79fa5e3828ae381aae3818ce38289e4bc9de38188e3819fe79691e38184e3818ce6bf83e58e9ae381a7e38182e3828be38082e4ba8be5ae9fe381aee8aaa4e3828ae381afe381aae3818fe38081e9878de8a681e381aae8a681e7b4a0e3818ce6aca0e38191e381a6e38184e381aae38184e38082e6848fe8a68be38284e4b8bbe8a6b3e79a84e381aae8aa8de8ad98e383bbe8a995e4bea1e381abe996a2e38199e3828be38193e381a8e381a7e38182e3828ae38081e79c9fe581bde38292e8a8bce6988ee383bbe8a7a3e6988ee381a7e3818de3828be4ba8be69f84e381a7e381afe381aae38184e38082e4b880e983a8e381afe4b88de6ada3e7a2bae381a0e3818ce38081e4b8bbe8a681e381aae983a8e58886e383bbe6a0b9e5b9b9e381abe8aaa4e3828ae381afe381aae38184e38082e4b880e8a68be4ba8be5ae9fe381a8e795b0e381aae3828be38193e381a8e381afe8a880e381a3e381a6e38184e381aae38184e3818ce38081e987a3e3828ae8a68be587bae38197e38284e9878de8a681e381aae4ba8be5ae9fe381aee6aca0e890bde381aae381a9e381abe38288e3828ae38081e8aaa4e8a7a3e381aee4bd99e59cb0e3818ce5a4a7e3818de38184e38082e79c9fe581bde38292e8a8bce6988ee38199e3828be38193e381a8e3818ce59bb0e99ba3e38082e8aaa4e3828ae381aee58fafe883bde680a7e3818ce5bcb7e3818fe381afe381aae38184e3818ce38081e590a6e5ae9ae38282e381a7e3818de381aae38184e38082e585a8e381a6e38081e38282e38197e3818fe381afe6a0b9e5b9b9e983a8e58886e381abe4ba8be5ae9fe381aee8aaa4e3828ae3818ce38182e3828be38082",
  "linkReferences": {},
  "deployedLinkReferences": {}
}